{
  "_format": "hh-sol-artifact-1",
  "contractName": "BatchRegistry",
  "sourceName": "contracts/BatchRegistry.sol",
  "abi": [
    {
      "anonymous": false,
      "inputs": [
        {
          "indexed": true,
          "internalType": "string",
          "name": "batchNumber",
          "type": "string"
        },
        {
          "indexed": true,
          "internalType": "address",
          "name": "manufacturerAddress",
          "type": "address"
        },
        {
          "indexed": false,
          "internalType": "uint256",
          "name": "timestamp",
          "type": "uint256"
        }
      ],
      "name": "BatchDeactivated",
      "type": "event"
    },
    {
      "anonymous": false,
      "inputs": [
        {
          "indexed": true,
          "internalType": "string",
          "name": "batchNumber",
          "type": "string"
        },
        {
          "indexed": false,
          "internalType": "uint256",
          "name": "oldQuantity",
          "type": "uint256"
        },
        {
          "indexed": false,
          "internalType": "uint256",
          "name": "newQuantity",
          "type": "uint256"
        },
        {
          "indexed": false,
          "internalType": "uint256",
          "name": "timestamp",
          "type": "uint256"
        }
      ],
      "name": "BatchQuantityUpdated",
      "type": "event"
    },
    {
      "anonymous": false,
      "inputs": [
        {
          "indexed": true,
          "internalType": "string",
          "name": "batchNumber",
          "type": "string"
        },
        {
          "indexed": true,
          "internalType": "address",
          "name": "manufacturerAddress",
          "type": "address"
        },
        {
          "indexed": false,
          "internalType": "uint256",
          "name": "quantityProduced",
          "type": "uint256"
        },
        {
          "indexed": false,
          "internalType": "uint256",
          "name": "registrationTimestamp",
          "type": "uint256"
        }
      ],
      "name": "BatchRegistered",
      "type": "event"
    },
    {
      "inputs": [
        {
          "internalType": "string",
          "name": "batchNumber",
          "type": "string"
        },
        {
          "internalType": "string",
          "name": "from",
          "type": "string"
        },
        {
          "internalType": "string",
          "name": "to",
          "type": "string"
        },
        {
          "internalType": "address",
          "name": "fromAddress",
          "type": "address"
        },
        {
          "internalType": "address",
          "name": "toAddress",
          "type": "address"
        },
        {
          "internalType": "string",
          "name": "status",
          "type": "string"
        },
        {
          "internalType": "uint256",
          "name": "quantity",
          "type": "uint256"
        },
        {
          "internalType": "string",
          "name": "remarks",
          "type": "string"
        }
      ],
      "name": "addShipmentEntry",
      "outputs": [],
      "stateMutability": "nonpayable",
      "type": "function"
    },
    {
      "inputs": [
        {
          "internalType": "uint256",
          "name": "",
          "type": "uint256"
        }
      ],
      "name": "allBatchFingerprints",
      "outputs": [
        {
          "internalType": "string",
          "name": "",
          "type": "string"
        }
      ],
      "stateMutability": "view",
      "type": "function"
    },
    {
      "inputs": [
        {
          "internalType": "uint256",
          "name": "",
          "type": "uint256"
        }
      ],
      "name": "allBatchNumbers",
      "outputs": [
        {
          "internalType": "string",
          "name": "",
          "type": "string"
        }
      ],
      "stateMutability": "view",
      "type": "function"
    },
    {
      "inputs": [
        {
          "internalType": "string",
          "name": "",
          "type": "string"
        },
        {
          "internalType": "uint256",
          "name": "",
          "type": "uint256"
        }
      ],
      "name": "batchShipmentHistory",
      "outputs": [
        {
          "internalType": "uint256",
          "name": "timestamp",
          "type": "uint256"
        },
        {
          "internalType": "string",
          "name": "from",
          "type": "string"
        },
        {
          "internalType": "string",
          "name": "to",
          "type": "string"
        },
        {
          "internalType": "address",
          "name": "fromAddress",
          "type": "address"
        },
        {
          "internalType": "address",
          "name": "toAddress",
          "type": "address"
        },
        {
          "internalType": "string",
          "name": "status",
          "type": "string"
        },
        {
          "internalType": "uint256",
          "name": "quantity",
          "type": "uint256"
        },
        {
          "internalType": "string",
          "name": "remarks",
          "type": "string"
        }
      ],
      "stateMutability": "view",
      "type": "function"
    },
    {
      "inputs": [
        {
          "internalType": "string",
          "name": "",
          "type": "string"
        }
      ],
      "name": "batchToFingerprint",
      "outputs": [
        {
          "internalType": "string",
          "name": "",
          "type": "string"
        }
      ],
      "stateMutability": "view",
      "type": "function"
    },
    {
      "inputs": [
        {
          "internalType": "string",
          "name": "",
          "type": "string"
        }
      ],
      "name": "batches",
      "outputs": [
        {
          "internalType": "string",
          "name": "batchNumber",
          "type": "string"
        },
        {
          "internalType": "uint256",
          "name": "manufactureDate",
          "type": "uint256"
        },
        {
          "internalType": "uint256",
          "name": "expiryDate",
          "type": "uint256"
        },
        {
          "internalType": "uint256",
          "name": "quantityProduced",
          "type": "uint256"
        },
        {
          "internalType": "uint256",
          "name": "quantityAvailable",
          "type": "uint256"
        },
        {
          "internalType": "string",
          "name": "dosageForm",
          "type": "string"
        },
        {
          "internalType": "string",
          "name": "strength",
          "type": "string"
        },
        {
          "internalType": "string",
          "name": "manufacturerName",
          "type": "string"
        },
        {
          "internalType": "address",
          "name": "manufacturerAddress",
          "type": "address"
        },
        {
          "internalType": "uint256",
          "name": "registrationTimestamp",
          "type": "uint256"
        },
        {
          "internalType": "bool",
          "name": "isActive",
          "type": "bool"
        },
        {
          "internalType": "string",
          "name": "digitalFingerprint",
          "type": "string"
        }
      ],
      "stateMutability": "view",
      "type": "function"
    },
    {
      "inputs": [
        {
          "internalType": "string",
          "name": "",
          "type": "string"
        }
      ],
      "name": "batchesByFingerprint",
      "outputs": [
        {
          "internalType": "string",
          "name": "batchNumber",
          "type": "string"
        },
        {
          "internalType": "uint256",
          "name": "manufactureDate",
          "type": "uint256"
        },
        {
          "internalType": "uint256",
          "name": "expiryDate",
          "type": "uint256"
        },
        {
          "internalType": "uint256",
          "name": "quantityProduced",
          "type": "uint256"
        },
        {
          "internalType": "uint256",
          "name": "quantityAvailable",
          "type": "uint256"
        },
        {
          "internalType": "string",
          "name": "dosageForm",
          "type": "string"
        },
        {
          "internalType": "string",
          "name": "strength",
          "type": "string"
        },
        {
          "internalType": "string",
          "name": "manufacturerName",
          "type": "string"
        },
        {
          "internalType": "address",
          "name": "manufacturerAddress",
          "type": "address"
        },
        {
          "internalType": "uint256",
          "name": "registrationTimestamp",
          "type": "uint256"
        },
        {
          "internalType": "bool",
          "name": "isActive",
          "type": "bool"
        },
        {
          "internalType": "string",
          "name": "digitalFingerprint",
          "type": "string"
        }
      ],
      "stateMutability": "view",
      "type": "function"
    },
    {
      "inputs": [
        {
          "internalType": "string",
          "name": "batchNumber",
          "type": "string"
        }
      ],
      "name": "deactivateBatch",
      "outputs": [],
      "stateMutability": "nonpayable",
      "type": "function"
    },
    {
      "inputs": [
        {
          "internalType": "string",
          "name": "batchNumber",
          "type": "string"
        }
      ],
      "name": "getBatch",
      "outputs": [
        {
          "components": [
            {
              "internalType": "string",
              "name": "batchNumber",
              "type": "string"
            },
            {
              "internalType": "uint256",
              "name": "manufactureDate",
              "type": "uint256"
            },
            {
              "internalType": "uint256",
              "name": "expiryDate",
              "type": "uint256"
            },
            {
              "internalType": "uint256",
              "name": "quantityProduced",
              "type": "uint256"
            },
            {
              "internalType": "uint256",
              "name": "quantityAvailable",
              "type": "uint256"
            },
            {
              "internalType": "string",
              "name": "dosageForm",
              "type": "string"
            },
            {
              "internalType": "string",
              "name": "strength",
              "type": "string"
            },
            {
              "internalType": "string",
              "name": "manufacturerName",
              "type": "string"
            },
            {
              "internalType": "address",
              "name": "manufacturerAddress",
              "type": "address"
            },
            {
              "internalType": "uint256",
              "name": "registrationTimestamp",
              "type": "uint256"
            },
            {
              "internalType": "bool",
              "name": "isActive",
              "type": "bool"
            },
            {
              "internalType": "string",
              "name": "digitalFingerprint",
              "type": "string"
            }
          ],
          "internalType": "struct BatchRegistry.Batch",
          "name": "",
          "type": "tuple"
        }
      ],
      "stateMutability": "view",
      "type": "function"
    },
    {
      "inputs": [
        {
          "internalType": "string",
          "name": "batchNumber",
          "type": "string"
        }
      ],
      "name": "getBatchAvailableQuantity",
      "outputs": [
        {
          "internalType": "uint256",
          "name": "",
          "type": "uint256"
        }
      ],
      "stateMutability": "view",
      "type": "function"
    },
    {
      "inputs": [
        {
          "internalType": "string",
          "name": "fingerprint",
          "type": "string"
        }
      ],
      "name": "getBatchByFingerprint",
      "outputs": [
        {
          "components": [
            {
              "internalType": "string",
              "name": "batchNumber",
              "type": "string"
            },
            {
              "internalType": "uint256",
              "name": "manufactureDate",
              "type": "uint256"
            },
            {
              "internalType": "uint256",
              "name": "expiryDate",
              "type": "uint256"
            },
            {
              "internalType": "uint256",
              "name": "quantityProduced",
              "type": "uint256"
            },
            {
              "internalType": "uint256",
              "name": "quantityAvailable",
              "type": "uint256"
            },
            {
              "internalType": "string",
              "name": "dosageForm",
              "type": "string"
            },
            {
              "internalType": "string",
              "name": "strength",
              "type": "string"
            },
            {
              "internalType": "string",
              "name": "manufacturerName",
              "type": "string"
            },
            {
              "internalType": "address",
              "name": "manufacturerAddress",
              "type": "address"
            },
            {
              "internalType": "uint256",
              "name": "registrationTimestamp",
              "type": "uint256"
            },
            {
              "internalType": "bool",
              "name": "isActive",
              "type": "bool"
            },
            {
              "internalType": "string",
              "name": "digitalFingerprint",
              "type": "string"
            }
          ],
          "internalType": "struct BatchRegistry.Batch",
          "name": "",
          "type": "tuple"
        }
      ],
      "stateMutability": "view",
      "type": "function"
    },
    {
      "inputs": [
        {
          "internalType": "string",
          "name": "batchNumber",
          "type": "string"
        }
      ],
      "name": "getBatchShipmentHistory",
      "outputs": [
        {
          "components": [
            {
              "internalType": "uint256",
              "name": "timestamp",
              "type": "uint256"
            },
            {
              "internalType": "string",
              "name": "from",
              "type": "string"
            },
            {
              "internalType": "string",
              "name": "to",
              "type": "string"
            },
            {
              "internalType": "address",
              "name": "fromAddress",
              "type": "address"
            },
            {
              "internalType": "address",
              "name": "toAddress",
              "type": "address"
            },
            {
              "internalType": "string",
              "name": "status",
              "type": "string"
            },
            {
              "internalType": "uint256",
              "name": "quantity",
              "type": "uint256"
            },
            {
              "internalType": "string",
              "name": "remarks",
              "type": "string"
            }
          ],
          "internalType": "struct BatchRegistry.ShipmentEntry[]",
          "name": "",
          "type": "tuple[]"
        }
      ],
      "stateMutability": "view",
      "type": "function"
    },
    {
      "inputs": [
        {
          "internalType": "string",
          "name": "batchNumber",
          "type": "string"
        }
      ],
      "name": "getBatchShipmentHistoryLength",
      "outputs": [
        {
          "internalType": "uint256",
          "name": "",
          "type": "uint256"
        }
      ],
      "stateMutability": "view",
      "type": "function"
    },
    {
      "inputs": [
        {
          "internalType": "string",
          "name": "batchNumber",
          "type": "string"
        }
      ],
      "name": "getFingerprintByBatch",
      "outputs": [
        {
          "internalType": "string",
          "name": "",
          "type": "string"
        }
      ],
      "stateMutability": "view",
      "type": "function"
    },
    {
      "inputs": [
        {
          "internalType": "address",
          "name": "manufacturer",
          "type": "address"
        }
      ],
      "name": "getManufacturerBatches",
      "outputs": [
        {
          "internalType": "string[]",
          "name": "",
          "type": "string[]"
        }
      ],
      "stateMutability": "view",
      "type": "function"
    },
    {
      "inputs": [],
      "name": "getTotalBatches",
      "outputs": [
        {
          "internalType": "uint256",
          "name": "",
          "type": "uint256"
        }
      ],
      "stateMutability": "view",
      "type": "function"
    },
    {
      "inputs": [
        {
          "internalType": "string",
          "name": "batchNumber",
          "type": "string"
        }
      ],
      "name": "isBatchActive",
      "outputs": [
        {
          "internalType": "bool",
          "name": "",
          "type": "bool"
        }
      ],
      "stateMutability": "view",
      "type": "function"
    },
    {
      "inputs": [
        {
          "internalType": "address",
          "name": "",
          "type": "address"
        },
        {
          "internalType": "uint256",
          "name": "",
          "type": "uint256"
        }
      ],
      "name": "manufacturerBatches",
      "outputs": [
        {
          "internalType": "string",
          "name": "",
          "type": "string"
        }
      ],
      "stateMutability": "view",
      "type": "function"
    },
    {
      "inputs": [
        {
          "internalType": "string",
          "name": "batchNumber",
          "type": "string"
        },
        {
          "internalType": "uint256",
          "name": "manufactureDate",
          "type": "uint256"
        },
        {
          "internalType": "uint256",
          "name": "expiryDate",
          "type": "uint256"
        },
        {
          "internalType": "uint256",
          "name": "quantityProduced",
          "type": "uint256"
        },
        {
          "internalType": "string",
          "name": "dosageForm",
          "type": "string"
        },
        {
          "internalType": "string",
          "name": "strength",
          "type": "string"
        },
        {
          "internalType": "string",
          "name": "manufacturerName",
          "type": "string"
        }
      ],
      "name": "registerBatch",
      "outputs": [],
      "stateMutability": "nonpayable",
      "type": "function"
    },
    {
      "inputs": [
        {
          "internalType": "string",
          "name": "batchNumber",
          "type": "string"
        },
        {
          "internalType": "uint256",
          "name": "newQuantityAvailable",
          "type": "uint256"
        }
      ],
      "name": "updateBatchQuantity",
      "outputs": [],
      "stateMutability": "nonpayable",
      "type": "function"
    }
  ],
  "bytecode": "0x6080604052348015600f57600080fd5b50612ab88061001f6000396000f3fe608060405234801561001057600080fd5b506004361061012c5760003560e01c80637ef1446a116100ad5780639ecdf4a0116100715780639ecdf4a0146102ba578063b5ac08d0146102da578063e561dddc146102ed578063f9ca4274146102f5578063fa63f2e31461030857600080fd5b80637ef1446a14610243578063829030351461026e57806387c71463146102815780639883e2811461029457806398f7df54146102a757600080fd5b806344642cf7116100f457806344642cf7146101bc5780637246d777146101cf5780637a90f8ab146101e25780637ba2bf47146102025780637c2b3e971461022257600080fd5b806312f432aa14610131578063197fac0d1461015a5780631ccb6dd71461016d5780631e0e5bc414610194578063285d9e7c146101a9575b600080fd5b61014461013f3660046120ee565b61032b565b604051610151919061217a565b60405180910390f35b610144610168366004612194565b610453565b61018061017b3660046121ad565b6104ff565b6040516101519897969594939291906121f1565b6101a76101a23660046120ee565b6107a5565b005b6101a76101b736600461228e565b610928565b6101446101ca366004612194565b610aae565b6101a76101dd3660046123a0565b610abe565b6101f56101f03660046120ee565b610ffd565b6040516101519190612479565b610215610210366004612581565b6113d5565b604051610151919061259c565b6102356102303660046120ee565b6114c4565b604051908152602001610151565b6102566102513660046120ee565b61153f565b6040516101519c9b9a99989796959493929190612601565b61025661027c3660046120ee565b61185d565b61014461028f3660046126b6565b611883565b6101446102a23660046120ee565b6118bb565b6102356102b53660046120ee565b6118df565b6102cd6102c83660046120ee565b61195d565b60405161015191906126e0565b6101a76102e83660046121ad565b611ca4565b600554610235565b6101f56103033660046120ee565b611ed3565b61031b6103163660046120ee565b611f3f565b6040519015158152602001610151565b6060600060028360405161033f91906127e0565b90815260200160405180910390208054610358906127fc565b9050116103a55760405162461bcd60e51b815260206004820152601660248201527510985d18da081b9d5b58995c881b9bdd08199bdd5b9960521b60448201526064015b60405180910390fd5b6002826040516103b591906127e0565b908152602001604051809103902080546103ce906127fc565b80601f01602080910402602001604051908101604052809291908181526020018280546103fa906127fc565b80156104475780601f1061041c57610100808354040283529160200191610447565b820191906000526020600020905b81548152906001019060200180831161042a57829003601f168201915b50505050509050919050565b6005818154811061046357600080fd5b90600052602060002001600091509050805461047e906127fc565b80601f01602080910402602001604051908101604052809291908181526020018280546104aa906127fc565b80156104f75780601f106104cc576101008083540402835291602001916104f7565b820191906000526020600020905b8154815290600101906020018083116104da57829003601f168201915b505050505081565b8151602081840181018051600482529282019185019190912091905280548290811061052a57600080fd5b906000526020600020906008020160009150915050806000015490806001018054610554906127fc565b80601f0160208091040260200160405190810160405280929190818152602001828054610580906127fc565b80156105cd5780601f106105a2576101008083540402835291602001916105cd565b820191906000526020600020905b8154815290600101906020018083116105b057829003601f168201915b5050505050908060020180546105e2906127fc565b80601f016020809104026020016040519081016040528092919081815260200182805461060e906127fc565b801561065b5780601f106106305761010080835404028352916020019161065b565b820191906000526020600020905b81548152906001019060200180831161063e57829003601f168201915b5050506003840154600485015460058601805495966001600160a01b039384169692909316945091925061068e906127fc565b80601f01602080910402602001604051908101604052809291908181526020018280546106ba906127fc565b80156107075780601f106106dc57610100808354040283529160200191610707565b820191906000526020600020905b8154815290600101906020018083116106ea57829003601f168201915b505050505090806006015490806007018054610722906127fc565b80601f016020809104026020016040519081016040528092919081815260200182805461074e906127fc565b801561079b5780601f106107705761010080835404028352916020019161079b565b820191906000526020600020905b81548152906001019060200180831161077e57829003601f168201915b5050505050905088565b336001600160a01b03166000826040516107bf91906127e0565b908152604051908190036020019020600801546001600160a01b0316146108375760405162461bcd60e51b815260206004820152602660248201527f4f6e6c79206261746368206d616e7566616374757265722063616e206465616360448201526574697661746560d01b606482015260840161039c565b60008160405161084791906127e0565b908152604051908190036020019020600a015460ff166108a95760405162461bcd60e51b815260206004820152601960248201527f426174636820697320616c726561647920696e61637469766500000000000000604482015260640161039c565b600080826040516108ba91906127e0565b908152604051908190036020018120600a01805492151560ff199093169290921790915533906108eb9083906127e0565b604051908190038120428252907f716f56151709303626571f89ff14539ca7751ddc4a284f3607336704e6b34dcc9060200160405180910390a350565b60006001600160a01b031660008960405161094391906127e0565b908152604051908190036020019020600801546001600160a01b03160361097c5760405162461bcd60e51b815260040161039c90612836565b6000604051806101000160405280428152602001898152602001888152602001876001600160a01b03168152602001866001600160a01b031681526020018581526020018481526020018381525090506004896040516109dc91906127e0565b90815260405160209181900382019020805460018082018355600092835291839020845160089092020190815591830151839291820190610a1d90826128b3565b5060408201516002820190610a3290826128b3565b5060608201516003820180546001600160a01b039283166001600160a01b031991821617909155608084015160048401805491909316911617905560a08201516005820190610a8190826128b3565b5060c0820151600682015560e08201516007820190610aa090826128b3565b505050505050505050505050565b6006818154811061046357600080fd5b60006001600160a01b0316600088604051610ad991906127e0565b908152604051908190036020019020600801546001600160a01b031614610b395760405162461bcd60e51b8152602060048201526014602482015273426174636820616c72656164792065786973747360601b604482015260640161039c565b858511610b9b5760405162461bcd60e51b815260206004820152602a60248201527f4578706972792064617465206d757374206265206166746572206d616e7566616044820152696374757265206461746560b01b606482015260840161039c565b42861115610bfc5760405162461bcd60e51b815260206004820152602860248201527f4d616e756661637475726520646174652063616e6e6f7420626520696e207468604482015267652066757475726560c01b606482015260840161039c565b60008411610c5d5760405162461bcd60e51b815260206004820152602860248201527f5175616e746974792070726f6475636564206d75737420626520677265617465604482015267072207468616e20360c41b606482015260840161039c565b6000610c6b88838742611fad565b9050604051806101800160405280898152602001888152602001878152602001868152602001868152602001858152602001848152602001838152602001336001600160a01b0316815260200142815260200160011515815260200182815250600089604051610cdb91906127e0565b90815260405190819003602001902081518190610cf890826128b3565b506020820151600182015560408201516002820155606082015160038201556080820151600482015560a08201516005820190610d3590826128b3565b5060c08201516006820190610d4a90826128b3565b5060e08201516007820190610d5f90826128b3565b506101008201516008820180546001600160a01b0319166001600160a01b039092169190911790556101208201516009820155610140820151600a8201805460ff1916911515919091179055610160820151600b820190610dc090826128b3565b50905050600088604051610dd491906127e0565b9081526020016040518091039020600182604051610df291906127e0565b90815260405190819003602001902080610e0c8382612974565b506001820154816001015560028201548160020155600382015481600301556004820154816004015560058201816005019081610e499190612974565b50600681810190610e5c90840182612974565b50600781810190610e6f90840182612974565b5060088281015490820180546001600160a01b0319166001600160a01b0390921691909117905560098083015490820155600a80830154908201805460ff909216151560ff19909216919091179055600b80820190610ed090840182612974565b5090505080600289604051610ee591906127e0565b90815260200160405180910390209081610eff91906128b3565b5033600090815260036020908152604082208054600181018255908352912001610f2989826128b3565b50600580546001810182556000919091527f036b6384b5eca791c62761152d0c79bb0604c104a5fb6f4eb0703f3154bb3db001610f6689826128b3565b50600680546001810182556000919091527ff652222313e28459528d920b65115c16c04f3efc82aaedc97be59f3f377c0d3f01610fa382826128b3565b506040513390610fb4908a906127e0565b60408051918290038220888352426020840152917faaed3963d690ad719845c971af2818fddeefa8e32d2ea5bd2391ba5fcc3131f4910160405180910390a35050505050505050565b611005611fdf565b600060018360405161101791906127e0565b9081526040519081900360200190208054611031906127fc565b9050116110725760405162461bcd60e51b815260206004820152600f60248201526e10985d18da081b9bdd08199bdd5b99608a1b604482015260640161039c565b60018260405161108291906127e0565b9081526020016040518091039020604051806101800160405290816000820180546110ac906127fc565b80601f01602080910402602001604051908101604052809291908181526020018280546110d8906127fc565b80156111255780601f106110fa57610100808354040283529160200191611125565b820191906000526020600020905b81548152906001019060200180831161110857829003601f168201915b5050505050815260200160018201548152602001600282015481526020016003820154815260200160048201548152602001600582018054611166906127fc565b80601f0160208091040260200160405190810160405280929190818152602001828054611192906127fc565b80156111df5780601f106111b4576101008083540402835291602001916111df565b820191906000526020600020905b8154815290600101906020018083116111c257829003601f168201915b505050505081526020016006820180546111f8906127fc565b80601f0160208091040260200160405190810160405280929190818152602001828054611224906127fc565b80156112715780601f1061124657610100808354040283529160200191611271565b820191906000526020600020905b81548152906001019060200180831161125457829003601f168201915b5050505050815260200160078201805461128a906127fc565b80601f01602080910402602001604051908101604052809291908181526020018280546112b6906127fc565b80156113035780601f106112d857610100808354040283529160200191611303565b820191906000526020600020905b8154815290600101906020018083116112e657829003601f168201915b505050918352505060088201546001600160a01b0316602082015260098201546040820152600a82015460ff1615156060820152600b8201805460809092019161134c906127fc565b80601f0160208091040260200160405190810160405280929190818152602001828054611378906127fc565b80156113c55780601f1061139a576101008083540402835291602001916113c5565b820191906000526020600020905b8154815290600101906020018083116113a857829003601f168201915b5050505050815250509050919050565b6001600160a01b0381166000908152600360209081526040808320805482518185028101850190935280835260609492939192909184015b828210156114b957838290600052602060002001805461142c906127fc565b80601f0160208091040260200160405190810160405280929190818152602001828054611458906127fc565b80156114a55780601f1061147a576101008083540402835291602001916114a5565b820191906000526020600020905b81548152906001019060200180831161148857829003601f168201915b50505050508152602001906001019061140d565b505050509050919050565b6000806001600160a01b03166000836040516114e091906127e0565b908152604051908190036020019020600801546001600160a01b0316036115195760405162461bcd60e51b815260040161039c90612836565b60048260405161152991906127e0565b9081526040519081900360200190205492915050565b8051602081830181018051600082529282019190930120915280548190611565906127fc565b80601f0160208091040260200160405190810160405280929190818152602001828054611591906127fc565b80156115de5780601f106115b3576101008083540402835291602001916115de565b820191906000526020600020905b8154815290600101906020018083116115c157829003601f168201915b50505050509080600101549080600201549080600301549080600401549080600501805461160b906127fc565b80601f0160208091040260200160405190810160405280929190818152602001828054611637906127fc565b80156116845780601f1061165957610100808354040283529160200191611684565b820191906000526020600020905b81548152906001019060200180831161166757829003601f168201915b505050505090806006018054611699906127fc565b80601f01602080910402602001604051908101604052809291908181526020018280546116c5906127fc565b80156117125780601f106116e757610100808354040283529160200191611712565b820191906000526020600020905b8154815290600101906020018083116116f557829003601f168201915b505050505090806007018054611727906127fc565b80601f0160208091040260200160405190810160405280929190818152602001828054611753906127fc565b80156117a05780601f10611775576101008083540402835291602001916117a0565b820191906000526020600020905b81548152906001019060200180831161178357829003601f168201915b50505060088401546009850154600a860154600b8701805496976001600160a01b039094169692955060ff9091169350906117da906127fc565b80601f0160208091040260200160405190810160405280929190818152602001828054611806906127fc565b80156118535780601f1061182857610100808354040283529160200191611853565b820191906000526020600020905b81548152906001019060200180831161183657829003601f168201915b505050505090508c565b8051602081830181018051600182529282019190930120915280548190611565906127fc565b6003602052816000526040600020818154811061189f57600080fd5b9060005260206000200160009150915050805461047e906127fc565b80516020818301810180516002825292820191909301209152805461047e906127fc565b6000806001600160a01b03166000836040516118fb91906127e0565b908152604051908190036020019020600801546001600160a01b0316036119345760405162461bcd60e51b815260040161039c90612836565b60008260405161194491906127e0565b9081526020016040518091039020600401549050919050565b606060006001600160a01b031660008360405161197a91906127e0565b908152604051908190036020019020600801546001600160a01b0316036119b35760405162461bcd60e51b815260040161039c90612836565b6004826040516119c391906127e0565b9081526020016040518091039020805480602002602001604051908101604052809291908181526020016000905b828210156114b957838290600052602060002090600802016040518061010001604052908160008201548152602001600182018054611a2f906127fc565b80601f0160208091040260200160405190810160405280929190818152602001828054611a5b906127fc565b8015611aa85780601f10611a7d57610100808354040283529160200191611aa8565b820191906000526020600020905b815481529060010190602001808311611a8b57829003601f168201915b50505050508152602001600282018054611ac1906127fc565b80601f0160208091040260200160405190810160405280929190818152602001828054611aed906127fc565b8015611b3a5780601f10611b0f57610100808354040283529160200191611b3a565b820191906000526020600020905b815481529060010190602001808311611b1d57829003601f168201915b505050918352505060038201546001600160a01b0390811660208301526004830154166040820152600582018054606090920191611b77906127fc565b80601f0160208091040260200160405190810160405280929190818152602001828054611ba3906127fc565b8015611bf05780601f10611bc557610100808354040283529160200191611bf0565b820191906000526020600020905b815481529060010190602001808311611bd357829003601f168201915b5050505050815260200160068201548152602001600782018054611c13906127fc565b80601f0160208091040260200160405190810160405280929190818152602001828054611c3f906127fc565b8015611c8c5780601f10611c6157610100808354040283529160200191611c8c565b820191906000526020600020905b815481529060010190602001808311611c6f57829003601f168201915b505050505081525050815260200190600101906119f1565b336001600160a01b0316600083604051611cbe91906127e0565b908152604051908190036020019020600801546001600160a01b031614611d3b5760405162461bcd60e51b815260206004820152602b60248201527f4f6e6c79206261746368206d616e7566616374757265722063616e207570646160448201526a7465207175616e7469747960a81b606482015260840161039c565b600082604051611d4b91906127e0565b908152604051908190036020019020600a015460ff16611da35760405162461bcd60e51b81526020600482015260136024820152724261746368206973206e6f742061637469766560681b604482015260640161039c565b600082604051611db391906127e0565b908152602001604051809103902060030154811115611e2f5760405162461bcd60e51b815260206004820152603260248201527f417661696c61626c65207175616e746974792063616e6e6f74206578636565646044820152712070726f6475636564207175616e7469747960701b606482015260840161039c565b60008083604051611e4091906127e0565b908152602001604051809103902060040154905081600084604051611e6591906127e0565b90815260405190819003602001812060040191909155611e869084906127e0565b60408051918290038220838352602083018590524283830152905190917fb2a6c9f7b220ff70cf383bf1702a389bbbd0ea28268607a3538bdb40f4b1488b919081900360600190a2505050565b611edb611fdf565b60006001600160a01b0316600083604051611ef691906127e0565b908152604051908190036020019020600801546001600160a01b031603611f2f5760405162461bcd60e51b815260040161039c90612836565b60008260405161108291906127e0565b6000806001600160a01b0316600083604051611f5b91906127e0565b908152604051908190036020019020600801546001600160a01b031614801590611fa75750600082604051611f9091906127e0565b908152604051908190036020019020600a015460ff165b92915050565b606084848484604051602001611fc69493929190612a48565b6040516020818303038152906040529050949350505050565b604051806101800160405280606081526020016000815260200160008152602001600081526020016000815260200160608152602001606081526020016060815260200160006001600160a01b0316815260200160008152602001600015158152602001606081525090565b634e487b7160e01b600052604160045260246000fd5b600082601f83011261207257600080fd5b81356001600160401b0381111561208b5761208b61204b565b604051601f8201601f19908116603f011681016001600160401b03811182821017156120b9576120b961204b565b6040528181528382016020018510156120d157600080fd5b816020850160208301376000918101602001919091529392505050565b60006020828403121561210057600080fd5b81356001600160401b0381111561211657600080fd5b61212284828501612061565b949350505050565b60005b8381101561214557818101518382015260200161212d565b50506000910152565b6000815180845261216681602086016020860161212a565b601f01601f19169290920160200192915050565b60208152600061218d602083018461214e565b9392505050565b6000602082840312156121a657600080fd5b5035919050565b600080604083850312156121c057600080fd5b82356001600160401b038111156121d657600080fd5b6121e285828601612061565b95602094909401359450505050565b8881526101006020820152600061220c61010083018a61214e565b828103604084015261221e818a61214e565b6001600160a01b0389811660608601528816608085015283810360a08501529050612249818761214e565b90508460c084015282810360e0840152612263818561214e565b9b9a5050505050505050505050565b80356001600160a01b038116811461228957600080fd5b919050565b600080600080600080600080610100898b0312156122ab57600080fd5b88356001600160401b038111156122c157600080fd5b6122cd8b828c01612061565b98505060208901356001600160401b038111156122e957600080fd5b6122f58b828c01612061565b97505060408901356001600160401b0381111561231157600080fd5b61231d8b828c01612061565b96505061232c60608a01612272565b945061233a60808a01612272565b935060a08901356001600160401b0381111561235557600080fd5b6123618b828c01612061565b93505060c0890135915060e08901356001600160401b0381111561238457600080fd5b6123908b828c01612061565b9150509295985092959890939650565b600080600080600080600060e0888a0312156123bb57600080fd5b87356001600160401b038111156123d157600080fd5b6123dd8a828b01612061565b97505060208801359550604088013594506060880135935060808801356001600160401b0381111561240e57600080fd5b61241a8a828b01612061565b93505060a08801356001600160401b0381111561243657600080fd5b6124428a828b01612061565b92505060c08801356001600160401b0381111561245e57600080fd5b61246a8a828b01612061565b91505092959891949750929550565b602081526000825161018060208401526124976101a084018261214e565b9050602084015160408401526040840151606084015260608401516080840152608084015160a084015260a0840151601f198483030160c08501526124dc828261214e565b91505060c0840151601f198483030160e08501526124fa828261214e565b91505060e0840151601f1984830301610100850152612519828261214e565b9150506101008401516125386101208501826001600160a01b03169052565b5061012084015161014084015261014084015161255a61016085018215159052565b50610160840151838203601f1901610180850152612578828261214e565b95945050505050565b60006020828403121561259357600080fd5b61218d82612272565b6000602082016020835280845180835260408501915060408160051b86010192506020860160005b828110156125f557603f198786030184526125e085835161214e565b945060209384019391909101906001016125c4565b50929695505050505050565b6101808152600061261661018083018f61214e565b8d60208401528c60408401528b60608401528a608084015282810360a0840152612640818b61214e565b905082810360c0840152612654818a61214e565b905082810360e0840152612668818961214e565b6001600160a01b03881661010085015290508561012084015261269061014084018615159052565b8281036101608401526126a3818561214e565b9f9e505050505050505050505050505050565b600080604083850312156126c957600080fd5b6126d283612272565b946020939093013593505050565b6000602082016020835280845180835260408501915060408160051b86010192506020860160005b828110156125f557603f198786030184528151805186526020810151610100602088015261273a61010088018261214e565b905060408201518782036040890152612753828261214e565b915050606082015161277060608901826001600160a01b03169052565b50608082015161278b60808901826001600160a01b03169052565b5060a082015187820360a08901526127a3828261214e565b91505060c082015160c088015260e0820151915086810360e08801526127c9818361214e565b965050506020938401939190910190600101612708565b600082516127f281846020870161212a565b9190910192915050565b600181811c9082168061281057607f821691505b60208210810361283057634e487b7160e01b600052602260045260246000fd5b50919050565b60208082526014908201527310985d18da08191bd95cc81b9bdd08195e1a5cdd60621b604082015260600190565b601f8211156128ae57806000526020600020601f840160051c8101602085101561288b5750805b601f840160051c820191505b818110156128ab5760008155600101612897565b50505b505050565b81516001600160401b038111156128cc576128cc61204b565b6128e0816128da84546127fc565b84612864565b6020601f82116001811461291757600083156128fc5750848201515b600184901b600019600386901b1c198216175b8555506128ab565b600084815260208120601f198516915b828110156129475787850151825560209485019460019092019101612927565b50848210156129655786840151600019600387901b60f8161c191681555b50505050600190811b01905550565b81810361297f575050565b61298982546127fc565b6001600160401b038111156129a0576129a061204b565b6129ae816128da84546127fc565b6000601f8211600181146129e057600083156128fc575081850154600184901b600019600386901b1c1982161761290f565b600085815260209020601f19841690600086815260209020845b83811015612a1a57828601548255600195860195909101906020016129fa565b5085831015612a385781850154600019600388901b60f8161c191681555b5050505050600190811b01905550565b60008551612a5a818460208a0161212a565b855190830190612a6e818360208a0161212a565b01938452505060208201526040019291505056fea2646970667358221220b5c8fde4d1f08e19085fd261bec8e4f66e3505c9f208aaae5f113e6dc51ec6cd64736f6c634300081c0033",
  "linkReferences": {},
  "deployedLinkReferences": {}
}