{
  "_format": "hh-sol-artifact-1",
  "contractName": "BatchRegistry",
  "sourceName": "contracts/BatchRegistry.sol",
  "abi": [
    {
      "anonymous": false,
      "inputs": [
        {
          "indexed": true,
          "internalType": "string",
          "name": "batchNumber",
          "type": "string"
        },
        {
          "indexed": true,
          "internalType": "address",
          "name": "manufacturerAddress",
          "type": "address"
        },
        {
          "indexed": false,
          "internalType": "uint256",
          "name": "timestamp",
          "type": "uint256"
        }
      ],
      "name": "BatchDeactivated",
      "type": "event"
    },
    {
      "anonymous": false,
      "inputs": [
        {
          "indexed": true,
          "internalType": "string",
          "name": "batchNumber",
          "type": "string"
        },
        {
          "indexed": false,
          "internalType": "uint256",
          "name": "oldQuantity",
          "type": "uint256"
        },
        {
          "indexed": false,
          "internalType": "uint256",
          "name": "newQuantity",
          "type": "uint256"
        },
        {
          "indexed": false,
          "internalType": "uint256",
          "name": "timestamp",
          "type": "uint256"
        }
      ],
      "name": "BatchQuantityUpdated",
      "type": "event"
    },
    {
      "anonymous": false,
      "inputs": [
        {
          "indexed": true,
          "internalType": "string",
          "name": "batchNumber",
          "type": "string"
        },
        {
          "indexed": true,
          "internalType": "address",
          "name": "manufacturerAddress",
          "type": "address"
        },
        {
          "indexed": false,
          "internalType": "uint256",
          "name": "quantityProduced",
          "type": "uint256"
        },
        {
          "indexed": false,
          "internalType": "uint256",
          "name": "registrationTimestamp",
          "type": "uint256"
        }
      ],
      "name": "BatchRegistered",
      "type": "event"
    },
    {
      "inputs": [
        {
          "internalType": "string",
          "name": "batchNumber",
          "type": "string"
        },
        {
          "internalType": "string",
          "name": "from",
          "type": "string"
        },
        {
          "internalType": "string",
          "name": "to",
          "type": "string"
        },
        {
          "internalType": "address",
          "name": "fromAddress",
          "type": "address"
        },
        {
          "internalType": "address",
          "name": "toAddress",
          "type": "address"
        },
        {
          "internalType": "string",
          "name": "status",
          "type": "string"
        },
        {
          "internalType": "uint256",
          "name": "quantity",
          "type": "uint256"
        },
        {
          "internalType": "string",
          "name": "remarks",
          "type": "string"
        }
      ],
      "name": "addShipmentEntry",
      "outputs": [],
      "stateMutability": "nonpayable",
      "type": "function"
    },
    {
      "inputs": [
        {
          "internalType": "uint256",
          "name": "",
          "type": "uint256"
        }
      ],
      "name": "allBatchFingerprints",
      "outputs": [
        {
          "internalType": "string",
          "name": "",
          "type": "string"
        }
      ],
      "stateMutability": "view",
      "type": "function"
    },
    {
      "inputs": [
        {
          "internalType": "uint256",
          "name": "",
          "type": "uint256"
        }
      ],
      "name": "allBatchNumbers",
      "outputs": [
        {
          "internalType": "string",
          "name": "",
          "type": "string"
        }
      ],
      "stateMutability": "view",
      "type": "function"
    },
    {
      "inputs": [
        {
          "internalType": "string",
          "name": "",
          "type": "string"
        },
        {
          "internalType": "uint256",
          "name": "",
          "type": "uint256"
        }
      ],
      "name": "batchShipmentHistory",
      "outputs": [
        {
          "internalType": "uint256",
          "name": "timestamp",
          "type": "uint256"
        },
        {
          "internalType": "string",
          "name": "from",
          "type": "string"
        },
        {
          "internalType": "string",
          "name": "to",
          "type": "string"
        },
        {
          "internalType": "address",
          "name": "fromAddress",
          "type": "address"
        },
        {
          "internalType": "address",
          "name": "toAddress",
          "type": "address"
        },
        {
          "internalType": "string",
          "name": "status",
          "type": "string"
        },
        {
          "internalType": "uint256",
          "name": "quantity",
          "type": "uint256"
        },
        {
          "internalType": "string",
          "name": "remarks",
          "type": "string"
        }
      ],
      "stateMutability": "view",
      "type": "function"
    },
    {
      "inputs": [
        {
          "internalType": "string",
          "name": "",
          "type": "string"
        }
      ],
      "name": "batchToFingerprint",
      "outputs": [
        {
          "internalType": "string",
          "name": "",
          "type": "string"
        }
      ],
      "stateMutability": "view",
      "type": "function"
    },
    {
      "inputs": [
        {
          "internalType": "string",
          "name": "",
          "type": "string"
        }
      ],
      "name": "batches",
      "outputs": [
        {
          "internalType": "string",
          "name": "batchNumber",
          "type": "string"
        },
        {
          "internalType": "uint256",
          "name": "manufactureDate",
          "type": "uint256"
        },
        {
          "internalType": "uint256",
          "name": "expiryDate",
          "type": "uint256"
        },
        {
          "internalType": "uint256",
          "name": "quantityProduced",
          "type": "uint256"
        },
        {
          "internalType": "uint256",
          "name": "quantityAvailable",
          "type": "uint256"
        },
        {
          "internalType": "string",
          "name": "dosageForm",
          "type": "string"
        },
        {
          "internalType": "string",
          "name": "strength",
          "type": "string"
        },
        {
          "internalType": "string",
          "name": "manufacturerName",
          "type": "string"
        },
        {
          "internalType": "address",
          "name": "manufacturerAddress",
          "type": "address"
        },
        {
          "internalType": "uint256",
          "name": "registrationTimestamp",
          "type": "uint256"
        },
        {
          "internalType": "bool",
          "name": "isActive",
          "type": "bool"
        },
        {
          "internalType": "string",
          "name": "digitalFingerprint",
          "type": "string"
        },
        {
          "internalType": "bool",
          "name": "distributorVerified",
          "type": "bool"
        },
        {
          "internalType": "bool",
          "name": "pharmacistVerified",
          "type": "bool"
        }
      ],
      "stateMutability": "view",
      "type": "function"
    },
    {
      "inputs": [
        {
          "internalType": "string",
          "name": "",
          "type": "string"
        }
      ],
      "name": "batchesByFingerprint",
      "outputs": [
        {
          "internalType": "string",
          "name": "batchNumber",
          "type": "string"
        },
        {
          "internalType": "uint256",
          "name": "manufactureDate",
          "type": "uint256"
        },
        {
          "internalType": "uint256",
          "name": "expiryDate",
          "type": "uint256"
        },
        {
          "internalType": "uint256",
          "name": "quantityProduced",
          "type": "uint256"
        },
        {
          "internalType": "uint256",
          "name": "quantityAvailable",
          "type": "uint256"
        },
        {
          "internalType": "string",
          "name": "dosageForm",
          "type": "string"
        },
        {
          "internalType": "string",
          "name": "strength",
          "type": "string"
        },
        {
          "internalType": "string",
          "name": "manufacturerName",
          "type": "string"
        },
        {
          "internalType": "address",
          "name": "manufacturerAddress",
          "type": "address"
        },
        {
          "internalType": "uint256",
          "name": "registrationTimestamp",
          "type": "uint256"
        },
        {
          "internalType": "bool",
          "name": "isActive",
          "type": "bool"
        },
        {
          "internalType": "string",
          "name": "digitalFingerprint",
          "type": "string"
        },
        {
          "internalType": "bool",
          "name": "distributorVerified",
          "type": "bool"
        },
        {
          "internalType": "bool",
          "name": "pharmacistVerified",
          "type": "bool"
        }
      ],
      "stateMutability": "view",
      "type": "function"
    },
    {
      "inputs": [
        {
          "internalType": "string",
          "name": "batchNumber",
          "type": "string"
        }
      ],
      "name": "deactivateBatch",
      "outputs": [],
      "stateMutability": "nonpayable",
      "type": "function"
    },
    {
      "inputs": [
        {
          "internalType": "string",
          "name": "batchNumber",
          "type": "string"
        }
      ],
      "name": "getBatch",
      "outputs": [
        {
          "components": [
            {
              "internalType": "string",
              "name": "batchNumber",
              "type": "string"
            },
            {
              "internalType": "uint256",
              "name": "manufactureDate",
              "type": "uint256"
            },
            {
              "internalType": "uint256",
              "name": "expiryDate",
              "type": "uint256"
            },
            {
              "internalType": "uint256",
              "name": "quantityProduced",
              "type": "uint256"
            },
            {
              "internalType": "uint256",
              "name": "quantityAvailable",
              "type": "uint256"
            },
            {
              "internalType": "string",
              "name": "dosageForm",
              "type": "string"
            },
            {
              "internalType": "string",
              "name": "strength",
              "type": "string"
            },
            {
              "internalType": "string",
              "name": "manufacturerName",
              "type": "string"
            },
            {
              "internalType": "address",
              "name": "manufacturerAddress",
              "type": "address"
            },
            {
              "internalType": "uint256",
              "name": "registrationTimestamp",
              "type": "uint256"
            },
            {
              "internalType": "bool",
              "name": "isActive",
              "type": "bool"
            },
            {
              "internalType": "string",
              "name": "digitalFingerprint",
              "type": "string"
            },
            {
              "internalType": "bool",
              "name": "distributorVerified",
              "type": "bool"
            },
            {
              "internalType": "bool",
              "name": "pharmacistVerified",
              "type": "bool"
            }
          ],
          "internalType": "struct BatchRegistry.Batch",
          "name": "",
          "type": "tuple"
        }
      ],
      "stateMutability": "view",
      "type": "function"
    },
    {
      "inputs": [
        {
          "internalType": "string",
          "name": "batchNumber",
          "type": "string"
        }
      ],
      "name": "getBatchAvailableQuantity",
      "outputs": [
        {
          "internalType": "uint256",
          "name": "",
          "type": "uint256"
        }
      ],
      "stateMutability": "view",
      "type": "function"
    },
    {
      "inputs": [
        {
          "internalType": "string",
          "name": "fingerprint",
          "type": "string"
        }
      ],
      "name": "getBatchByFingerprint",
      "outputs": [
        {
          "components": [
            {
              "internalType": "string",
              "name": "batchNumber",
              "type": "string"
            },
            {
              "internalType": "uint256",
              "name": "manufactureDate",
              "type": "uint256"
            },
            {
              "internalType": "uint256",
              "name": "expiryDate",
              "type": "uint256"
            },
            {
              "internalType": "uint256",
              "name": "quantityProduced",
              "type": "uint256"
            },
            {
              "internalType": "uint256",
              "name": "quantityAvailable",
              "type": "uint256"
            },
            {
              "internalType": "string",
              "name": "dosageForm",
              "type": "string"
            },
            {
              "internalType": "string",
              "name": "strength",
              "type": "string"
            },
            {
              "internalType": "string",
              "name": "manufacturerName",
              "type": "string"
            },
            {
              "internalType": "address",
              "name": "manufacturerAddress",
              "type": "address"
            },
            {
              "internalType": "uint256",
              "name": "registrationTimestamp",
              "type": "uint256"
            },
            {
              "internalType": "bool",
              "name": "isActive",
              "type": "bool"
            },
            {
              "internalType": "string",
              "name": "digitalFingerprint",
              "type": "string"
            },
            {
              "internalType": "bool",
              "name": "distributorVerified",
              "type": "bool"
            },
            {
              "internalType": "bool",
              "name": "pharmacistVerified",
              "type": "bool"
            }
          ],
          "internalType": "struct BatchRegistry.Batch",
          "name": "",
          "type": "tuple"
        }
      ],
      "stateMutability": "view",
      "type": "function"
    },
    {
      "inputs": [
        {
          "internalType": "string",
          "name": "batchNumber",
          "type": "string"
        }
      ],
      "name": "getBatchShipmentHistory",
      "outputs": [
        {
          "components": [
            {
              "internalType": "uint256",
              "name": "timestamp",
              "type": "uint256"
            },
            {
              "internalType": "string",
              "name": "from",
              "type": "string"
            },
            {
              "internalType": "string",
              "name": "to",
              "type": "string"
            },
            {
              "internalType": "address",
              "name": "fromAddress",
              "type": "address"
            },
            {
              "internalType": "address",
              "name": "toAddress",
              "type": "address"
            },
            {
              "internalType": "string",
              "name": "status",
              "type": "string"
            },
            {
              "internalType": "uint256",
              "name": "quantity",
              "type": "uint256"
            },
            {
              "internalType": "string",
              "name": "remarks",
              "type": "string"
            }
          ],
          "internalType": "struct BatchRegistry.ShipmentEntry[]",
          "name": "",
          "type": "tuple[]"
        }
      ],
      "stateMutability": "view",
      "type": "function"
    },
    {
      "inputs": [
        {
          "internalType": "string",
          "name": "batchNumber",
          "type": "string"
        }
      ],
      "name": "getBatchShipmentHistoryLength",
      "outputs": [
        {
          "internalType": "uint256",
          "name": "",
          "type": "uint256"
        }
      ],
      "stateMutability": "view",
      "type": "function"
    },
    {
      "inputs": [
        {
          "internalType": "string",
          "name": "batchNumber",
          "type": "string"
        }
      ],
      "name": "getFingerprintByBatch",
      "outputs": [
        {
          "internalType": "string",
          "name": "",
          "type": "string"
        }
      ],
      "stateMutability": "view",
      "type": "function"
    },
    {
      "inputs": [
        {
          "internalType": "address",
          "name": "manufacturer",
          "type": "address"
        }
      ],
      "name": "getManufacturerBatches",
      "outputs": [
        {
          "internalType": "string[]",
          "name": "",
          "type": "string[]"
        }
      ],
      "stateMutability": "view",
      "type": "function"
    },
    {
      "inputs": [],
      "name": "getTotalBatches",
      "outputs": [
        {
          "internalType": "uint256",
          "name": "",
          "type": "uint256"
        }
      ],
      "stateMutability": "view",
      "type": "function"
    },
    {
      "inputs": [
        {
          "internalType": "string",
          "name": "batchNumber",
          "type": "string"
        }
      ],
      "name": "getVerificationStatus",
      "outputs": [
        {
          "internalType": "bool",
          "name": "distributorVerified",
          "type": "bool"
        },
        {
          "internalType": "bool",
          "name": "pharmacistVerified",
          "type": "bool"
        }
      ],
      "stateMutability": "view",
      "type": "function"
    },
    {
      "inputs": [
        {
          "internalType": "string",
          "name": "batchNumber",
          "type": "string"
        }
      ],
      "name": "isBatchActive",
      "outputs": [
        {
          "internalType": "bool",
          "name": "",
          "type": "bool"
        }
      ],
      "stateMutability": "view",
      "type": "function"
    },
    {
      "inputs": [
        {
          "internalType": "address",
          "name": "",
          "type": "address"
        },
        {
          "internalType": "uint256",
          "name": "",
          "type": "uint256"
        }
      ],
      "name": "manufacturerBatches",
      "outputs": [
        {
          "internalType": "string",
          "name": "",
          "type": "string"
        }
      ],
      "stateMutability": "view",
      "type": "function"
    },
    {
      "inputs": [
        {
          "internalType": "string",
          "name": "batchNumber",
          "type": "string"
        },
        {
          "internalType": "uint256",
          "name": "manufactureDate",
          "type": "uint256"
        },
        {
          "internalType": "uint256",
          "name": "expiryDate",
          "type": "uint256"
        },
        {
          "internalType": "uint256",
          "name": "quantityProduced",
          "type": "uint256"
        },
        {
          "internalType": "string",
          "name": "dosageForm",
          "type": "string"
        },
        {
          "internalType": "string",
          "name": "strength",
          "type": "string"
        },
        {
          "internalType": "string",
          "name": "manufacturerName",
          "type": "string"
        }
      ],
      "name": "registerBatch",
      "outputs": [],
      "stateMutability": "nonpayable",
      "type": "function"
    },
    {
      "inputs": [
        {
          "internalType": "string",
          "name": "batchNumber",
          "type": "string"
        },
        {
          "internalType": "uint256",
          "name": "newQuantityAvailable",
          "type": "uint256"
        }
      ],
      "name": "updateBatchQuantity",
      "outputs": [],
      "stateMutability": "nonpayable",
      "type": "function"
    },
    {
      "inputs": [
        {
          "internalType": "string",
          "name": "batchNumber",
          "type": "string"
        }
      ],
      "name": "verifyByDistributor",
      "outputs": [],
      "stateMutability": "nonpayable",
      "type": "function"
    },
    {
      "inputs": [
        {
          "internalType": "string",
          "name": "batchNumber",
          "type": "string"
        }
      ],
      "name": "verifyByPharmacist",
      "outputs": [],
      "stateMutability": "nonpayable",
      "type": "function"
    }
  ],
  "bytecode": "0x60806040523460195760405161269d61001f823961269d90f35b600080fdfe6080604052600436101561001257600080fd5b60003560e01c8063042b21671461018257806312f432aa1461017d578063197fac0d146101785780631ccb6dd7146101735780631e0e5bc41461016e578063285d9e7c1461016957806344642cf7146101645780637246d7771461015f5780637a90f8ab1461015a5780637ba2bf47146101555780637c2b3e97146101505780637ef1446a1461014b578063829030351461014657806387c71463146101415780639883e2811461013c57806398f7df54146101375780639ecdf4a014610132578063b5ac08d01461012d578063d8b0779e14610128578063e561dddc14610123578063f8b26abd1461011e578063f9ca4274146101195763fa63f2e30361018757611030565b611015565b610ffd565b610fe1565b610fbe565b610fa5565b610f7e565b610e5b565b610e40565b610e0f565b610d79565b610d2e565b610b57565b610b30565b610a6e565b610940565b610876565b61083c565b610737565b6106ff565b6104fd565b610335565b61029b565b600080fd5b634e487b7160e01b600052604160045260246000fd5b90601f01601f191681019081106001600160401b038211176101c357604052565b61018c565b906101dc6101d560405190565b92836101a2565b565b6001600160401b0381116101c357602090601f01601f19160190565b0190565b90826000939282370152565b9092919261021f61021a826101de565b6101c8565b9381855281830111610187576101dc9160208501906101fe565b9080601f83011215610187578160206102549335910161020a565b90565b906020828203126101875781356001600160401b038111610187576102549201610239565b9052565b90151581526040810192916101dc916020905b019015159052565b34610187576102b36102ae366004610257565b6110b6565b906102c96102c060405190565b92839283610280565b0390f35b60005b8381106102e05750506000910152565b81810151838201526020016102d0565b61031161031a6020936101fa93610305815190565b80835293849260200190565b958691016102cd565b601f01601f191690565b6020808252610254929101906102f0565b34610187576102c961035061034b366004610257565b611180565b60405191829182610324565b805b0361018757565b905035906101dc8261035c565b906020828203126101875761025491610365565b634e487b7160e01b600052603260045260246000fd5b80548210156103bf576103b6600191600052602060002090565b91020190600090565b610386565b634e487b7160e01b600052600060045260246000fd5b634e487b7160e01b600052602260045260246000fd5b9060016002830492168015610410575b602083101461040b57565b6103da565b91607f1691610400565b8054600093929161043761042d836103f0565b8085529360200190565b9160018116908115610489575060011461045057505050565b6104639192939450600052602060002090565b916000925b8184106104755750500190565b805484840152602090930192600101610468565b92949550505060ff1916825215156020020190565b906102549161041a565b906101dc6104c2926104b960405190565b9384809261049e565b03836101a2565b906000106104da57610254906104a8565b6103c4565b600554811015610187576104f761025491600561039c565b906104c9565b34610187576102c9610350610513366004610372565b6104df565b9190604083820312610187578235906001600160401b03821161018757602061054682610254948701610239565b9401610365565b6101fa6105659260209261055f815190565b94859290565b938491016102cd565b61057e6101fa916020949361054d565b918252565b61059861058f60405190565b9283928361056e565b03902090565b61025491610583565b80548210156103bf576103b6600891600052602060002090565b6102549081565b61025490546105c1565b610254905b6001600160a01b031690565b61025490546105d2565b6105f890600461059e565b90610601825490565b81101561018757610611916105a7565b509061061c826105c8565b91610629600182016104a8565b91610636600283016104a8565b91610643600382016105e3565b91610650600483016105e3565b9161065d600582016104a8565b91610254600761066f600685016105c8565b93016104a8565b61027c906105d7565b946106dd906106d36106c86106ea966106ba8a6106f29a986102549f9d986106ad9060006101008501940152565b8c820360208e01526102f0565b908a820360408c01526102f0565b946060890190610676565b6080870190610676565b84820360a08601526102f0565b9360c0830152565b60e08184039101526102f0565b34610187576102c961071b610715366004610518565b906105ed565b9461072e98969894919493929360405190565b9889988961067f565b346101875761074f61074a366004610257565b6112b8565b604051005b61035e816105d7565b905035906101dc82610754565b919091610100818403126101875780356001600160401b0381116101875783610794918301610239565b9260208201356001600160401b03811161018757816107b4918401610239565b9260408301356001600160401b03811161018757826107d4918501610239565b926107e2836060830161075d565b926107f0816080840161075d565b9260a08301356001600160401b0381116101875782610810918501610239565b9261081e8360c08301610365565b9260e08201356001600160401b038111610187576102549201610239565b346101875761074f61084f36600461076a565b9695909594919493929361163b565b600654811015610187576104f761025491600661039c565b34610187576102c961035061088c366004610372565b61085e565b9060e0828203126101875781356001600160401b03811161018757816108b8918401610239565b926108c68260208501610365565b926108d48360408301610365565b926108e28160608401610365565b9260808301356001600160401b0381116101875782610902918501610239565b9260a08101356001600160401b0381116101875783610922918301610239565b9260c08201356001600160401b038111610187576102549201610239565b346101875761074f610953366004610891565b95949094939193611bd3565b90610254906101a080610a46610a006109ee6109dc61098e6101c0880160008b015189820360008b01526102f0565b61099d60208b015160208a0152565b6109ac60408b015160408a0152565b6109bb60608b015160608a0152565b6109ca60808b015160808a0152565b60a08a015188820360a08a01526102f0565b60c089015187820360c08901526102f0565b60e088015186820360e08801526102f0565b610a14610100880151610100870190610676565b610a25610120880151610120870152565b610140878101511515908601526101608701518582036101608701526102f0565b610180808701511515908501529401511515910152565b60208082526102549291019061095f565b34610187576102c9610a89610a84366004610257565b611f82565b60405191829182610a5d565b90602082820312610187576102549161075d565b90610254916102f0565b90610ac9610abf835190565b8083529160200190565b9081610adb6020830284019460200190565b926000915b838310610aef57505050505090565b90919293946020610b12610b0b83856001950387528951610aa9565b9760200190565b9301930191939290610ae0565b602080825261025492910190610ab3565b34610187576102c9610b4b610b46366004610a95565b612048565b60405191829182610b1f565b34610187576102c9610b72610b6d366004610257565b612064565b6040519182918290815260200190565b610254905b60ff1690565b6102549054610b82565b6102549060081c610b87565b6102549054610b97565b610bb890600061059e565b90610bc2826104a8565b91610bcf600182016105c8565b91610bdc600283016105c8565b91610be9600382016105c8565b91610bf6600483016105c8565b91610c03600582016104a8565b91610c10600683016104a8565b91610c1d600782016104a8565b91610c2a600883016105e3565b91610c37600982016105c8565b91610c44600a8301610b8d565b91610c51600b82016104a8565b91610254600c610c62818501610b8d565b9301610ba3565b99916101dc9d9f9e9c9698610ce98c6102939c9a6101a09f98610cf795610d239e6106dd610d159d610cd4610cdb95610ccd610d0b9f610cc6610d039f8c610cbe916101c082019160008184039101526102f0565b9860208d0152565b60408b0152565b6060890152565b6080870152565b9160c08184039101526102f0565b8c810360e08e0152906102f0565b966101008b0190610676565b610120890152565b1515610140870152565b8482036101608601526102f0565b961515610180830152565b34610187576102c9610d49610d44366004610257565b610bad565b9a610d659e9c9e9a919a99929998939897949796959660405190565b9e8f9e8f610c69565b610bb890600161059e565b34610187576102c9610d49610d8f366004610257565b610d6e565b919060408382031261018757610254906020610546828661075d565b610254906105d7906001600160a01b031682565b61025490610db0565b61025490610dc4565b90610de090610dcd565b600052602052604060002090565b610df9906003610dd6565b805482101561018757610254916104f79161039c565b34610187576102c9610350610e25366004610d94565b90610dee565b6000610e3b61025492600261059e565b6104c9565b34610187576102c9610350610e56366004610257565b610e2b565b34610187576102c9610b72610e71366004610257565b6120a2565b805182526102549160e0610ee8610eb2610ea06101008501602087015186820360208801526102f0565b604086015185820360408701526102f0565b610ec460608601516060860190610676565b610ed660808601516080860190610676565b60a085015184820360a08601526102f0565b92610ef860c082015160c0850152565b01519060e08184039101526102f0565b9061025491610e76565b90610f1e610abf835190565b9081610f306020830284019460200190565b926000915b838310610f4457505050505090565b90919293946020610f60610b0b83856001950387528951610f08565b9301930191939290610f35565b602080825261025492910190610f12565b34610187576102c9610f99610f94366004610257565b6121e0565b60405191829182610f6d565b346101875761074f610fb8366004610518565b9061231a565b346101875761074f610fd1366004610257565b6124d0565b600091031261018757565b3461018757610ff1366004610fd6565b6102c9610b7260055490565b346101875761074f611010366004610257565b612571565b34610187576102c9610a8961102b366004610257565b6125c2565b34610187576102c961104b611046366004610257565b6125d1565b60405191829182901515815260200190565b6105d76102546102549290565b6102549061105d565b1561107a57565b60405162461bcd60e51b815260206004820152601460248201527310985d18da08191bd95cc81b9bdd08195e1a5cdd60621b6044820152606490fd5b90610254600c6111156000946110fb6110da60086110d4848a61059e565b016105e3565b6110f46110ee6110e98a61106a565b6105d7565b916105d7565b1415611073565b61110f83611109838961059e565b01610b8d565b9561059e565b01610ba3565b61025490546103f0565b6102546102546102549290565b1561113957565b60405162461bcd60e51b815260206004820152601660248201527510985d18da081b9d5b58995c881b9bdd08199bdd5b9960521b6044820152606490fd5b610254906104a8565b6111c76102549161118f606090565b506111c06111a96111a461025484600261059e565b61111b565b6111ba6111b66000611125565b9190565b11611132565b600261059e565b611177565b156111d357565b60405162461bcd60e51b815260206004820152602660248201527f4f6e6c79206261746368206d616e7566616374757265722063616e206465616360448201526574697661746560d01b6064820152608490fd5b1561122e57565b60405162461bcd60e51b8152602060048201526019602482015278426174636820697320616c726561647920696e61637469766560381b6044820152606490fd5b9060ff905b9181191691161790565b9061128e61025461129592151590565b825461126f565b9055565b6102549161054d565b610598906112af60405190565b91829182611299565b6113139061130e60006112e56112d360086110d4868561059e565b6112df6110ee336105d7565b146111cc565b6112fc6112f7600a611109868561059e565b611227565b600a611308848361059e565b0161127e565b6112a2565b61131c33610dcd565b907f716f56151709303626571f89ff14539ca7751ddc4a284f3607336704e6b34dcc61134760405190565b428152602090a3565b6102546101006101c8565b9061027c906105d7565b9060001990611274565b9061137f61025461129592611125565b8254611365565b9160001960089290920291821b911b611274565b91906113ab61025461129593611125565b908354611386565b6101dc9160009161139a565b8181106113ca575050565b806113d860006001936113b3565b016113bf565b9190601f81116113ed57505050565b6113ff6101dc93600052602060002090565b906020601f840181900483019310611421575b6020601f9091010401906113bf565b9091508190611412565b9060001960089091021c191690565b816114449161142b565b906002021790565b90611455815190565b906001600160401b0382116101c3576114788261147285546103f0565b856113de565b602090601f83116001146114a65761129592916000918361149b575b505061143a565b015190503880611494565b601f198316916114bb85600052602060002090565b9260005b8181106114fa575091600293918560019694106114e0575b50505002019055565b6114f0910151601f84169061142b565b90553880806114d7565b919360206001819287870151815501950192016114bf565b906101dc9161144c565b61025490516105d7565b906001600160a01b0390611274565b9061154561025461129592610dcd565b8254611526565b60076115fc60e06101dc9461156b611565600083015190565b8661136f565b611582611579602083015190565b60018701611512565b611599611590604083015190565b60028701611512565b6115b16115a86060830161151c565b60038701611535565b6115c96115c06080830161151c565b60048701611535565b6115e06115d760a083015190565b60058701611512565b6115f76115ee60c083015190565b6006870161136f565b015190565b9101611512565b91906104da576101dc9161154c565b80549190600160401b8310156101c357826116359160016101dc950181556105a7565b90611603565b959391969492909661164e87600061059e565b60080161165a906105e3565b611664600061106a565b61166d906105d7565b90611677906105d7565b141561168290611073565b61168a611350565b97611693428a52565b602089015260408801526116aa906060880161135b565b6116b7906080870161135b565b60a085015260c084015260e08301526116d190600461059e565b906101dc91611612565b156116e257565b60405162461bcd60e51b8152602060048201526014602482015273426174636820616c72656164792065786973747360601b6044820152606490fd5b1561172557565b60405162461bcd60e51b815260206004820152602a60248201527f4578706972792064617465206d757374206265206166746572206d616e7566616044820152696374757265206461746560b01b6064820152608490fd5b1561178457565b60405162461bcd60e51b815260206004820152602860248201527f4d616e756661637475726520646174652063616e6e6f7420626520696e207468604482015267652066757475726560c01b6064820152608490fd5b156117e157565b60405162461bcd60e51b815260206004820152602860248201527f5175616e746974792070726f6475636564206d75737420626520677265617465604482015267072207468616e20360c41b6064820152608490fd5b6102546101c06101c8565b9061ff009060081b611274565b9061185f61025461129592151590565b8254611842565b906119ab6101a0600c6101dc94611887611881600087015190565b82611512565b61189e611895602087015190565b6001830161136f565b6118b56118ac604087015190565b6002830161136f565b6118cc6118c3606087015190565b6003830161136f565b6118e36118da608087015190565b6004830161136f565b6118fa6118f160a087015190565b60058301611512565b61191161190860c087015190565b60068301611512565b61192861191f60e087015190565b60078301611512565b611941611938610100870161151c565b60088301611535565b61195961195061012087015190565b6009830161136f565b61197361196a610140870151151590565b600a830161127e565b61198b61198261016087015190565b600b8301611512565b01926119a461199e610180830151151590565b8561127e565b0151151590565b9061184f565b906101dc91611866565b90808214611a86576119cc8161111b565b906001600160401b0382116101c3576119e98261147285546103f0565b600090601f8311600114611a1657611295929160009183611a0b57505061143a565b015490503880611494565b90611a2b601f19841692600052602060002090565b90611a3b85600052602060002090565b92815b818110611a6e57509160029391856001969410611a5e5750505002019055565b6114f0910154601f84169061142b565b91936001806020928787015481550195019201611a3e565b5050565b906101dc916119bb565b90808203611aa0575050565b6101dc916119ab90600c908190611ab78582611a8a565b611ac6611895600187016105c8565b611ad56118ac600287016105c8565b611ae46118c3600387016105c8565b611af36118da600487016105c8565b611b036005860160058301611a8a565b611b136006860160068301611a8a565b611b236007860160078301611a8a565b611b32611938600887016105e3565b611b41611950600987016105c8565b611b5061196a600a8701610b8d565b611b60600b8601600b8301611a8a565b019201611b75611b6f82610b8d565b8461127e565b610ba3565b906101dc91611a94565b91906104da576101dc9161144c565b80549190600160401b8310156101c35782611bb69160016101dc9501815561039c565b90611b84565b9081526040810192916101dc9160200152565b0152565b94958592949396600094611be7858761059e565b600801611bf3906105e3565b611bfc8761106a565b611c05906105d7565b90611c0f906105d7565b14611c19906116db565b611c2484881161171e565b611c304285111561177d565b611c3986611125565b8911611c44906117da565b611c50428a8588612635565b96611c59611837565b87810187905294611c6b906020870152565b6040850152611c7b896060860152565b611c86896080860152565b60a084015260c083015260e0820152611ca333610100830161135b565b611caf42610120830152565b6001610140820152610160810184905282151561018082018190526101a0820152611cda828461059e565b90611ce4916119b1565b611ced9161059e565b611cf882600161059e565b90611d0291611b7a565b80611d0e83600261059e565b90611d1891611512565b81611d24336003610dd6565b90611d2e91611b93565b611d39826005611b93565b611d44906006611b93565b611d4d906112a2565b611d5633610dcd565b91611d6060405190565b809142611d6d9183611bbc565b037faaed3963d690ad719845c971af2818fddeefa8e32d2ea5bd2391ba5fcc3131f491a3565b60209081808080808080808080808080611dab611837565b9e8f60608152016000815201600081520160008152016000815201606081520160608152016060815201600081520160008152016000815201606081520160008152016000905250565b610254611d93565b15611e0457565b60405162461bcd60e51b815260206004820152600f60248201526e10985d18da081b9bdd08199bdd5b99608a1b6044820152606490fd5b906101dc611f6f600c611e4c611837565b94611e5d611e59826104a8565b8752565b611e73611e6c600183016105c8565b6020880152565b611e89611e82600283016105c8565b6040880152565b611e9f611e98600383016105c8565b6060880152565b611eb5611eae600483016105c8565b6080880152565b611ecb611ec4600583016104a8565b60a0880152565b611ee1611eda600683016104a8565b60c0880152565b611ef7611ef0600783016104a8565b60e0880152565b611f10611f06600883016105e3565b610100880161135b565b611f27611f1f600983016105c8565b610120880152565b611f40611f36600a8301610b8d565b1515610140880152565b611f57611f4f600b83016104a8565b610160880152565b611115611f65838301610b8d565b1515610180880152565b15156101a0840152565b61025490611e3b565b611fc261025491611f91611df5565b50611fbb611fa86111a460006101fa85600161059e565b611fb56111b66000611125565b11611dfd565b600161059e565b611f79565b6001600160401b0381116101c35760208091020190565b9061057e61021a83611fc7565b90611ff4825490565b611ffd81611fde565b926120116020850191600052602060002090565b6000915b8383106120225750505050565b60016020819261203185611177565b815201920192019190612015565b61025490611feb565b61205f61025491612057606090565b506003610dd6565b61203f565b61209e61025491612073600090565b5061209761208760086110d484600061059e565b6110f46110ee6110e9600061106a565b600461059e565b5490565b60046120dc610254926120b3600090565b5060006120d76120c860086110d4858561059e565b6110f46110ee6110e98561106a565b61059e565b016105c8565b906101dc61217260076120f3611350565b94612100611e59826105c8565b61210f611e6c600183016104a8565b61211e611e82600283016104a8565b61213661212d600383016105e3565b6060880161135b565b61214e612145600483016105e3565b6080880161135b565b61215d611ec4600583016104a8565b61216c611eda600683016105c8565b016104a8565b60e0840152565b610254906120e2565b9061218b825490565b61219481611fde565b926121a86020850191600052602060002090565b6000915b8383106121b95750505050565b600860206001926121c985612179565b8152019201920191906121ac565b61025490612182565b6121ef61025491612073606090565b6121d7565b156121fb57565b60405162461bcd60e51b815260206004820152602b60248201527f4f6e6c79206261746368206d616e7566616374757265722063616e207570646160448201526a7465207175616e7469747960a81b6064820152608490fd5b1561225b57565b60405162461bcd60e51b81526020600482015260136024820152724261746368206973206e6f742061637469766560681b6044820152606490fd5b1561229d57565b60405162461bcd60e51b815260206004820152603260248201527f417661696c61626c65207175616e746974792063616e6e6f74206578636565646044820152712070726f6475636564207175616e7469747960701b6064820152608490fd5b9081526060810193926101dc929091604091611bcf906020830152565b7fb2a6c9f7b220ff70cf383bf1702a389bbbd0ea28268607a3538bdb40f4b1488b906123be60009161236661235460086110d4848761059e565b6123606110ee336105d7565b146121f4565b61237d612378600a611109848761059e565b612254565b61239a61239261025460036120dc858861059e565b861115612296565b61130e8560046123b8846123b2836120dc838b61059e565b9761059e565b0161136f565b926123d66123cb60405190565b9283924291846122fd565b0390a2565b156123e257565b60405162461bcd60e51b815260206004820152601f60248201527f416c7265616479207665726966696564206279206469737472696275746f72006044820152606490fd5b8054600093929161243e61243a836103f0565b9390565b916001811690811561248f575060011461245757505050565b61246a9192939450600052602060002090565b6000905b83821061247b5750500190565b60018160209254848601520191019061246e565b60ff191683525050811515909102019150565b61057e6101fa9160209493612427565b6105986124be60405190565b928392836124a2565b610254916124b2565b6101dc90600c61130861251f836111c060006124f46120c860086110d4868561059e565b61251161250c61250888611109878661059e565b1590565b6123db565b85611308600198899361059e565b836124c7565b1561252c57565b60405162461bcd60e51b815260206004820152601e60248201527f416c726561647920766572696669656420627920706861726d616369737400006044820152606490fd5b6101dc90600c6125bc61251f836111c060006125956120c860086110d4868561059e565b6125ae6125a961250888611115878661059e565b612525565b856125bc600198899361059e565b0161184f565b611fc2610254916120b3611df5565b6000906125e360086110d4838561059e565b6125f26110ee6110e98561106a565b141591826125ff57505090565b6102549250600a916111099161059e565b9261262f61057e6101fa9461262960209897899661054d565b9061054d565b01918252565b906102549161265b61025495612649606090565b50604051958694602086019485612610565b908103825203826101a256fea264697066735822122075fcf5c436acfe84b7246117ec92cbbbd6e3313c9bde03f2136de6f0b9e0e04b64736f6c634300081c0033",
  "linkReferences": {},
  "deployedLinkReferences": {}
}