{
  "_format": "hh-sol-artifact-1",
  "contractName": "ProductRegistry",
  "sourceName": "contracts/ProductRegistry.sol",
  "abi": [
    {
      "anonymous": false,
      "inputs": [
        {
          "indexed": true,
          "internalType": "string",
          "name": "fingerprint",
          "type": "string"
        },
        {
          "indexed": true,
          "internalType": "string",
          "name": "serialNumber",
          "type": "string"
        },
        {
          "indexed": true,
          "internalType": "string",
          "name": "batchNumber",
          "type": "string"
        },
        {
          "indexed": false,
          "internalType": "address",
          "name": "manufacturerAddress",
          "type": "address"
        },
        {
          "indexed": false,
          "internalType": "uint256",
          "name": "registrationTimestamp",
          "type": "uint256"
        }
      ],
      "name": "ProductRegistered",
      "type": "event"
    },
    {
      "inputs": [
        {
          "internalType": "uint256",
          "name": "",
          "type": "uint256"
        }
      ],
      "name": "allProductFingerprints",
      "outputs": [
        {
          "internalType": "string",
          "name": "",
          "type": "string"
        }
      ],
      "stateMutability": "view",
      "type": "function"
    },
    {
      "inputs": [
        {
          "internalType": "string",
          "name": "serialNumber",
          "type": "string"
        }
      ],
      "name": "getFingerprintBySerial",
      "outputs": [
        {
          "internalType": "string",
          "name": "",
          "type": "string"
        }
      ],
      "stateMutability": "view",
      "type": "function"
    },
    {
      "inputs": [
        {
          "internalType": "string",
          "name": "fingerprint",
          "type": "string"
        }
      ],
      "name": "getProductByFingerprint",
      "outputs": [
        {
          "components": [
            {
              "internalType": "string",
              "name": "name",
              "type": "string"
            },
            {
              "internalType": "string",
              "name": "serialNumber",
              "type": "string"
            },
            {
              "internalType": "string",
              "name": "batchNumber",
              "type": "string"
            },
            {
              "internalType": "uint256",
              "name": "manufactureDate",
              "type": "uint256"
            },
            {
              "internalType": "uint256",
              "name": "expiryDate",
              "type": "uint256"
            },
            {
              "internalType": "string",
              "name": "manufacturerName",
              "type": "string"
            },
            {
              "internalType": "string",
              "name": "dosageForm",
              "type": "string"
            },
            {
              "internalType": "string",
              "name": "strength",
              "type": "string"
            },
            {
              "internalType": "address",
              "name": "manufacturerAddress",
              "type": "address"
            },
            {
              "internalType": "string",
              "name": "digitalFingerprint",
              "type": "string"
            },
            {
              "internalType": "uint256",
              "name": "registrationTimestamp",
              "type": "uint256"
            },
            {
              "internalType": "bool",
              "name": "isActive",
              "type": "bool"
            }
          ],
          "internalType": "struct ProductRegistry.Product",
          "name": "",
          "type": "tuple"
        }
      ],
      "stateMutability": "view",
      "type": "function"
    },
    {
      "inputs": [],
      "name": "getTotalProducts",
      "outputs": [
        {
          "internalType": "uint256",
          "name": "",
          "type": "uint256"
        }
      ],
      "stateMutability": "view",
      "type": "function"
    },
    {
      "inputs": [
        {
          "internalType": "string",
          "name": "fingerprint",
          "type": "string"
        }
      ],
      "name": "productExistsByFingerprint",
      "outputs": [
        {
          "internalType": "bool",
          "name": "",
          "type": "bool"
        }
      ],
      "stateMutability": "view",
      "type": "function"
    },
    {
      "inputs": [
        {
          "internalType": "string",
          "name": "",
          "type": "string"
        }
      ],
      "name": "products",
      "outputs": [
        {
          "internalType": "string",
          "name": "name",
          "type": "string"
        },
        {
          "internalType": "string",
          "name": "serialNumber",
          "type": "string"
        },
        {
          "internalType": "string",
          "name": "batchNumber",
          "type": "string"
        },
        {
          "internalType": "uint256",
          "name": "manufactureDate",
          "type": "uint256"
        },
        {
          "internalType": "uint256",
          "name": "expiryDate",
          "type": "uint256"
        },
        {
          "internalType": "string",
          "name": "manufacturerName",
          "type": "string"
        },
        {
          "internalType": "string",
          "name": "dosageForm",
          "type": "string"
        },
        {
          "internalType": "string",
          "name": "strength",
          "type": "string"
        },
        {
          "internalType": "address",
          "name": "manufacturerAddress",
          "type": "address"
        },
        {
          "internalType": "string",
          "name": "digitalFingerprint",
          "type": "string"
        },
        {
          "internalType": "uint256",
          "name": "registrationTimestamp",
          "type": "uint256"
        },
        {
          "internalType": "bool",
          "name": "isActive",
          "type": "bool"
        }
      ],
      "stateMutability": "view",
      "type": "function"
    },
    {
      "inputs": [
        {
          "internalType": "string",
          "name": "",
          "type": "string"
        }
      ],
      "name": "productsByFingerprint",
      "outputs": [
        {
          "internalType": "string",
          "name": "name",
          "type": "string"
        },
        {
          "internalType": "string",
          "name": "serialNumber",
          "type": "string"
        },
        {
          "internalType": "string",
          "name": "batchNumber",
          "type": "string"
        },
        {
          "internalType": "uint256",
          "name": "manufactureDate",
          "type": "uint256"
        },
        {
          "internalType": "uint256",
          "name": "expiryDate",
          "type": "uint256"
        },
        {
          "internalType": "string",
          "name": "manufacturerName",
          "type": "string"
        },
        {
          "internalType": "string",
          "name": "dosageForm",
          "type": "string"
        },
        {
          "internalType": "string",
          "name": "strength",
          "type": "string"
        },
        {
          "internalType": "address",
          "name": "manufacturerAddress",
          "type": "address"
        },
        {
          "internalType": "string",
          "name": "digitalFingerprint",
          "type": "string"
        },
        {
          "internalType": "uint256",
          "name": "registrationTimestamp",
          "type": "uint256"
        },
        {
          "internalType": "bool",
          "name": "isActive",
          "type": "bool"
        }
      ],
      "stateMutability": "view",
      "type": "function"
    },
    {
      "inputs": [
        {
          "internalType": "string",
          "name": "name",
          "type": "string"
        },
        {
          "internalType": "string",
          "name": "serialNumber",
          "type": "string"
        },
        {
          "internalType": "string",
          "name": "batchNumber",
          "type": "string"
        },
        {
          "internalType": "uint256",
          "name": "manufactureDate",
          "type": "uint256"
        },
        {
          "internalType": "uint256",
          "name": "expiryDate",
          "type": "uint256"
        },
        {
          "internalType": "string",
          "name": "manufacturerName",
          "type": "string"
        },
        {
          "internalType": "string",
          "name": "dosageForm",
          "type": "string"
        },
        {
          "internalType": "string",
          "name": "strength",
          "type": "string"
        }
      ],
      "name": "registerProduct",
      "outputs": [],
      "stateMutability": "nonpayable",
      "type": "function"
    },
    {
      "inputs": [
        {
          "internalType": "string",
          "name": "",
          "type": "string"
        }
      ],
      "name": "serialToFingerprint",
      "outputs": [
        {
          "internalType": "string",
          "name": "",
          "type": "string"
        }
      ],
      "stateMutability": "view",
      "type": "function"
    }
  ],
  "bytecode": "0x6080604052348015600f57600080fd5b506118b08061001f6000396000f3fe608060405234801561001057600080fd5b50600436106100935760003560e01c8063630f39a011610066578063630f39a01461011d578063962fa6d0146101305780639af5b05114610145578063a55cf64d14610158578063fce318f71461016b57600080fd5b80630186a4231461009857806333e03df5146100cc5780633f4371c5146100ec578063570aea8a1461010c575b600080fd5b6100ab6100a63660046112cb565b61018e565b6040516100c39c9b9a99989796959493929190611358565b60405180910390f35b6100df6100da3660046112cb565b6105bc565b6040516100c3919061142a565b6100ff6100fa3660046112cb565b610661565b6040516100c39190611444565b6003546040519081526020016100c3565b6100df61012b3660046112cb565b610bb9565b61014361013e366004611575565b610ce3565b005b6100df6101533660046116a0565b611167565b6100ab6101663660046112cb565b611192565b61017e6101793660046112cb565b6111b8565b60405190151581526020016100c3565b80516020818301810180516000825292820191909301209152805481906101b4906116b9565b80601f01602080910402602001604051908101604052809291908181526020018280546101e0906116b9565b801561022d5780601f106102025761010080835404028352916020019161022d565b820191906000526020600020905b81548152906001019060200180831161021057829003601f168201915b505050505090806001018054610242906116b9565b80601f016020809104026020016040519081016040528092919081815260200182805461026e906116b9565b80156102bb5780601f10610290576101008083540402835291602001916102bb565b820191906000526020600020905b81548152906001019060200180831161029e57829003601f168201915b5050505050908060020180546102d0906116b9565b80601f01602080910402602001604051908101604052809291908181526020018280546102fc906116b9565b80156103495780601f1061031e57610100808354040283529160200191610349565b820191906000526020600020905b81548152906001019060200180831161032c57829003601f168201915b50505050509080600301549080600401549080600501805461036a906116b9565b80601f0160208091040260200160405190810160405280929190818152602001828054610396906116b9565b80156103e35780601f106103b8576101008083540402835291602001916103e3565b820191906000526020600020905b8154815290600101906020018083116103c657829003601f168201915b5050505050908060060180546103f8906116b9565b80601f0160208091040260200160405190810160405280929190818152602001828054610424906116b9565b80156104715780601f1061044657610100808354040283529160200191610471565b820191906000526020600020905b81548152906001019060200180831161045457829003601f168201915b505050505090806007018054610486906116b9565b80601f01602080910402602001604051908101604052809291908181526020018280546104b2906116b9565b80156104ff5780601f106104d4576101008083540402835291602001916104ff565b820191906000526020600020905b8154815290600101906020018083116104e257829003601f168201915b505050600884015460098501805494956001600160a01b03909216949193509150610529906116b9565b80601f0160208091040260200160405190810160405280929190818152602001828054610555906116b9565b80156105a25780601f10610577576101008083540402835291602001916105a2565b820191906000526020600020905b81548152906001019060200180831161058557829003601f168201915b50505050600a830154600b9093015491929160ff1690508c565b8051602081830181018051600282529282019190930120915280546105e0906116b9565b80601f016020809104026020016040519081016040528092919081815260200182805461060c906116b9565b80156106595780601f1061062e57610100808354040283529160200191610659565b820191906000526020600020905b81548152906001019060200180831161063c57829003601f168201915b505050505081565b6106d0604051806101800160405280606081526020016060815260200160608152602001600081526020016000815260200160608152602001606081526020016060815260200160006001600160a01b0316815260200160608152602001600081526020016000151581525090565b60006001836040516106e291906116f3565b908152602001604051809103902060010180546106fe906116b9565b9050116107465760405162461bcd60e51b8152602060048201526011602482015270141c9bd91d58dd081b9bdd08199bdd5b99607a1b60448201526064015b60405180910390fd5b60018260405161075691906116f3565b908152602001604051809103902060405180610180016040529081600082018054610780906116b9565b80601f01602080910402602001604051908101604052809291908181526020018280546107ac906116b9565b80156107f95780601f106107ce576101008083540402835291602001916107f9565b820191906000526020600020905b8154815290600101906020018083116107dc57829003601f168201915b50505050508152602001600182018054610812906116b9565b80601f016020809104026020016040519081016040528092919081815260200182805461083e906116b9565b801561088b5780601f106108605761010080835404028352916020019161088b565b820191906000526020600020905b81548152906001019060200180831161086e57829003601f168201915b505050505081526020016002820180546108a4906116b9565b80601f01602080910402602001604051908101604052809291908181526020018280546108d0906116b9565b801561091d5780601f106108f25761010080835404028352916020019161091d565b820191906000526020600020905b81548152906001019060200180831161090057829003601f168201915b50505050508152602001600382015481526020016004820154815260200160058201805461094a906116b9565b80601f0160208091040260200160405190810160405280929190818152602001828054610976906116b9565b80156109c35780601f10610998576101008083540402835291602001916109c3565b820191906000526020600020905b8154815290600101906020018083116109a657829003601f168201915b505050505081526020016006820180546109dc906116b9565b80601f0160208091040260200160405190810160405280929190818152602001828054610a08906116b9565b8015610a555780601f10610a2a57610100808354040283529160200191610a55565b820191906000526020600020905b815481529060010190602001808311610a3857829003601f168201915b50505050508152602001600782018054610a6e906116b9565b80601f0160208091040260200160405190810160405280929190818152602001828054610a9a906116b9565b8015610ae75780601f10610abc57610100808354040283529160200191610ae7565b820191906000526020600020905b815481529060010190602001808311610aca57829003601f168201915b505050918352505060088201546001600160a01b03166020820152600982018054604090920191610b17906116b9565b80601f0160208091040260200160405190810160405280929190818152602001828054610b43906116b9565b8015610b905780601f10610b6557610100808354040283529160200191610b90565b820191906000526020600020905b815481529060010190602001808311610b7357829003601f168201915b5050509183525050600a8201546020820152600b9091015460ff16151560409091015292915050565b60606000600283604051610bcd91906116f3565b90815260200160405180910390208054610be6906116b9565b905011610c355760405162461bcd60e51b815260206004820152601760248201527f53657269616c206e756d626572206e6f7420666f756e64000000000000000000604482015260640161073d565b600282604051610c4591906116f3565b90815260200160405180910390208054610c5e906116b9565b80601f0160208091040260200160405190810160405280929190818152602001828054610c8a906116b9565b8015610cd75780601f10610cac57610100808354040283529160200191610cd7565b820191906000526020600020905b815481529060010190602001808311610cba57829003601f168201915b50505050509050919050565b6000610cf288888b87426111f1565b9050600181604051610d0491906116f3565b90815260200160405180910390206001018054610d20906116b9565b159050610d7a5760405162461bcd60e51b815260206004820152602260248201527f50726f647563742066696e6765727072696e7420616c72656164792065786973604482015261747360f01b606482015260840161073d565b600088604051610d8a91906116f3565b90815260200160405180910390206001018054610da6906116b9565b159050610df55760405162461bcd60e51b815260206004820152601c60248201527f53657269616c206e756d62657220616c72656164792065786973747300000000604482015260640161073d565b60006040518061018001604052808b81526020018a8152602001898152602001888152602001878152602001868152602001858152602001848152602001336001600160a01b031681526020018381526020014281526020016001151581525090508060008a604051610e6891906116f3565b90815260405190819003602001902081518190610e85908261175e565b5060208201516001820190610e9a908261175e565b5060408201516002820190610eaf908261175e565b50606082015160038201556080820151600482015560a08201516005820190610ed8908261175e565b5060c08201516006820190610eed908261175e565b5060e08201516007820190610f02908261175e565b506101008201516008820180546001600160a01b0319166001600160a01b039092169190911790556101208201516009820190610f3f908261175e565b50610140820151600a82015561016090910151600b909101805460ff19169115159190911790556040518190600190610f799085906116f3565b90815260405190819003602001902081518190610f96908261175e565b5060208201516001820190610fab908261175e565b5060408201516002820190610fc0908261175e565b50606082015160038201556080820151600482015560a08201516005820190610fe9908261175e565b5060c08201516006820190610ffe908261175e565b5060e08201516007820190611013908261175e565b506101008201516008820180546001600160a01b0319166001600160a01b039092169190911790556101208201516009820190611050908261175e565b50610140820151600a82015561016090910151600b909101805460ff1916911515919091179055604051829060029061108a908c906116f3565b908152602001604051809103902090816110a4919061175e565b50600380546001810182556000919091527fc2575a0e9e593c00f959f8c92f12db2869c3395a3b0502d05e2516446f71f85b016110e1838261175e565b50876040516110f091906116f3565b60405180910390208960405161110691906116f3565b60405180910390208360405161111c91906116f3565b60408051918290038220338352426020840152917f94f13dbe024332dcc9eea3655dffd40eaeb320b6c8479d9bc98d2c34f1e5e1c5910160405180910390a450505050505050505050565b6003818154811061117757600080fd5b9060005260206000200160009150905080546105e0906116b9565b80516020818301810180516001825292820191909301209152805481906101b4906116b9565b6000806001836040516111cb91906116f3565b908152602001604051809103902060010180546111e7906116b9565b9050119050919050565b6060858585858560405160200161120c95949392919061181d565b604051602081830303815290604052905095945050505050565b634e487b7160e01b600052604160045260246000fd5b600082601f83011261124d57600080fd5b813567ffffffffffffffff81111561126757611267611226565b604051601f8201601f19908116603f0116810167ffffffffffffffff8111828210171561129657611296611226565b6040528181528382016020018510156112ae57600080fd5b816020850160208301376000918101602001919091529392505050565b6000602082840312156112dd57600080fd5b813567ffffffffffffffff8111156112f457600080fd5b6113008482850161123c565b949350505050565b60005b8381101561132357818101518382015260200161130b565b50506000910152565b60008151808452611344816020860160208601611308565b601f01601f19169290920160200192915050565b6101808152600061136d61018083018f61132c565b828103602084015261137f818f61132c565b90508281036040840152611393818e61132c565b90508b60608401528a608084015282810360a08401526113b3818b61132c565b905082810360c08401526113c7818a61132c565b905082810360e08401526113db818961132c565b6001600160a01b0388166101008501529050828103610120840152611400818761132c565b9150508361014083015261141961016083018415159052565b9d9c50505050505050505050505050565b60208152600061143d602083018461132c565b9392505050565b602081526000825161018060208401526114626101a084018261132c565b90506020840151601f1984830301604085015261147f828261132c565b9150506040840151601f1984830301606085015261149d828261132c565b91505060608401516080840152608084015160a084015260a0840151601f198483030160c08501526114cf828261132c565b91505060c0840151601f198483030160e08501526114ed828261132c565b91505060e0840151601f198483030161010085015261150c828261132c565b91505061010084015161152b6101208501826001600160a01b03169052565b50610120840151838203601f1901610140850152611549828261132c565b91505061014084015161016084015261016084015161156d61018085018215159052565b509392505050565b600080600080600080600080610100898b03121561159257600080fd5b883567ffffffffffffffff8111156115a957600080fd5b6115b58b828c0161123c565b985050602089013567ffffffffffffffff8111156115d257600080fd5b6115de8b828c0161123c565b975050604089013567ffffffffffffffff8111156115fb57600080fd5b6116078b828c0161123c565b965050606089013594506080890135935060a089013567ffffffffffffffff81111561163257600080fd5b61163e8b828c0161123c565b93505060c089013567ffffffffffffffff81111561165b57600080fd5b6116678b828c0161123c565b92505060e089013567ffffffffffffffff81111561168457600080fd5b6116908b828c0161123c565b9150509295985092959890939650565b6000602082840312156116b257600080fd5b5035919050565b600181811c908216806116cd57607f821691505b6020821081036116ed57634e487b7160e01b600052602260045260246000fd5b50919050565b60008251611705818460208701611308565b9190910192915050565b601f82111561175957806000526020600020601f840160051c810160208510156117365750805b601f840160051c820191505b818110156117565760008155600101611742565b50505b505050565b815167ffffffffffffffff81111561177857611778611226565b61178c8161178684546116b9565b8461170f565b6020601f8211600181146117c057600083156117a85750848201515b600019600385901b1c1916600184901b178455611756565b600084815260208120601f198516915b828110156117f057878501518255602094850194600190920191016117d0565b508482101561180e5786840151600019600387901b60f8161c191681555b50505050600190811b01905550565b6000865161182f818460208b01611308565b865190830190611843818360208b01611308565b8651910190611856818360208a01611308565b8551910190611869818360208901611308565b01928352505060200194935050505056fea26469706673582212201da03aee0709796d9f9790476dfc456eae564587b353b3ef053bd9a02ad3af7664736f6c634300081c0033",
  "linkReferences": {},
  "deployedLinkReferences": {}
}