{
  "_format": "hh-sol-artifact-1",
  "contractName": "ProductRegistry",
  "sourceName": "contracts/ProductRegistry.sol",
  "abi": [
    {
      "inputs": [
        {
          "internalType": "string",
          "name": "",
          "type": "string"
        }
      ],
      "name": "products",
      "outputs": [
        {
          "internalType": "string",
          "name": "name",
          "type": "string"
        },
        {
          "internalType": "string",
          "name": "serialNumber",
          "type": "string"
        },
        {
          "internalType": "string",
          "name": "batchNumber",
          "type": "string"
        },
        {
          "internalType": "uint256",
          "name": "manufactureDate",
          "type": "uint256"
        },
        {
          "internalType": "uint256",
          "name": "expiryDate",
          "type": "uint256"
        },
        {
          "internalType": "string",
          "name": "manufacturerName",
          "type": "string"
        },
        {
          "internalType": "string",
          "name": "manufacturerLicense",
          "type": "string"
        },
        {
          "internalType": "string",
          "name": "productionLocation",
          "type": "string"
        },
        {
          "internalType": "string",
          "name": "drugCode",
          "type": "string"
        },
        {
          "internalType": "string",
          "name": "dosageForm",
          "type": "string"
        },
        {
          "internalType": "string",
          "name": "strength",
          "type": "string"
        },
        {
          "internalType": "string",
          "name": "storageCondition",
          "type": "string"
        },
        {
          "internalType": "string",
          "name": "approvalCertificateId",
          "type": "string"
        },
        {
          "internalType": "string",
          "name": "manufacturerCountry",
          "type": "string"
        },
        {
          "internalType": "address",
          "name": "manufacturerAddress",
          "type": "address"
        }
      ],
      "stateMutability": "view",
      "type": "function"
    },
    {
      "inputs": [
        {
          "internalType": "string",
          "name": "name",
          "type": "string"
        },
        {
          "internalType": "string",
          "name": "serialNumber",
          "type": "string"
        },
        {
          "internalType": "string",
          "name": "batchNumber",
          "type": "string"
        },
        {
          "internalType": "uint256",
          "name": "manufactureDate",
          "type": "uint256"
        },
        {
          "internalType": "uint256",
          "name": "expiryDate",
          "type": "uint256"
        },
        {
          "internalType": "string",
          "name": "manufacturerName",
          "type": "string"
        },
        {
          "internalType": "string",
          "name": "manufacturerLicense",
          "type": "string"
        },
        {
          "internalType": "string",
          "name": "productionLocation",
          "type": "string"
        },
        {
          "internalType": "string",
          "name": "drugCode",
          "type": "string"
        },
        {
          "internalType": "string",
          "name": "dosageForm",
          "type": "string"
        },
        {
          "internalType": "string",
          "name": "strength",
          "type": "string"
        },
        {
          "internalType": "string",
          "name": "storageCondition",
          "type": "string"
        },
        {
          "internalType": "string",
          "name": "approvalCertificateId",
          "type": "string"
        },
        {
          "internalType": "string",
          "name": "manufacturerCountry",
          "type": "string"
        }
      ],
      "name": "registerProduct",
      "outputs": [],
      "stateMutability": "nonpayable",
      "type": "function"
    }
  ],
  "bytecode": "0x608080604052346015576113d7908161001b8239f35b600080fdfe6080604052600436101561001257600080fd5b60003560e01c80630186a4231461100e57631c07d4521461003257600080fd5b34611009576101c0366003190112611009576004356001600160401b03811161100957610063903690600401611225565b6024356001600160401b03811161100957610082903690600401611225565b6044356001600160401b038111611009576100a1903690600401611225565b9160a4356001600160401b038111611009576100c1903690600401611225565b60c4356001600160401b038111611009576100e0903690600401611225565b60e4356001600160401b038111611009576100ff903690600401611225565b610104356001600160401b0381116110095761011f903690600401611225565b610124356001600160401b0381116110095761013f903690600401611225565b90610144356001600160401b03811161100957610160903690600401611225565b92610164356001600160401b03811161100957610181903690600401611225565b94610184356001600160401b038111611009576101a2903690600401611225565b966101a4356001600160401b038111611009576101c3903690600401611225565b9a604051996101e08b018b81106001600160401b03821117610795576040528a528a60208b015260408a015260643560608a015260843560808a015260a089015260c088015260e08701526101008601526101208501526101408401526101608301526101808201526101a0810192835261025560206101c0830193338552816040519382858094519384920161127b565b810160008152030190209080518051906001600160401b03821161079557819061027f855461129e565b601f8111610fb9575b50602090601f8311600114610f5457600092610f49575b50508160011b916000199060031b1c19161782555b6001820160208201518051906001600160401b0382116107955781906102da845461129e565b601f8111610ef6575b50602090601f8311600114610e9157600092610e86575b50508160011b916000199060031b1c19161790555b6002820160408201518051906001600160401b038211610795578190610335845461129e565b601f8111610e33575b50602090601f8311600114610dce57600092610dc3575b50508160011b916000199060031b1c19161790555b60608101516003830155608081015160048301556005820160a08201518051906001600160401b0382116107955781906103a4845461129e565b601f8111610d70575b50602090601f8311600114610d0b57600092610d00575b50508160011b916000199060031b1c19161790555b6006820160c08201518051906001600160401b0382116107955781906103ff845461129e565b601f8111610cad575b50602090601f8311600114610c4857600092610c3d575b50508160011b916000199060031b1c19161790555b6007820160e08201518051906001600160401b03821161079557819061045a845461129e565b601f8111610bea575b50602090601f8311600114610b8557600092610b7a575b50508160011b916000199060031b1c19161790555b600882016101008201518051906001600160401b0382116107955781906104b6845461129e565b601f8111610b27575b50602090601f8311600114610ac257600092610ab7575b50508160011b916000199060031b1c19161790555b600982016101208201518051906001600160401b038211610795578190610512845461129e565b601f8111610a64575b50602090601f83116001146109ff576000926109f4575b50508160011b916000199060031b1c19161790555b600a82016101408201518051906001600160401b03821161079557819061056e845461129e565b601f81116109a1575b50602090601f831160011461093c57600092610931575b50508160011b916000199060031b1c19161790555b600b82016101608201518051906001600160401b0382116107955781906105ca845461129e565b601f81116108de575b50602090601f83116001146108795760009261086e575b50508160011b916000199060031b1c19161790555b61018001518051600c8301916001600160401b038211610795578190610625845461129e565b601f811161081b575b50602090601f83116001146107b6576000926107ab575b50508160011b916000199060031b1c19161790555b600d810192519283516001600160401b0381116107955761067b825461129e565b601f811161074d575b506020601f82116001146106e4578190600e95966000926106d9575b50508160011b916000199060031b1c19161790555b9151910180546001600160a01b0319166001600160a01b0392909216919091179055005b0151905038806106a0565b601f1982169583600052816000209660005b818110610735575091600e96979184600195941061071c575b505050811b0190556106b5565b015160001960f88460031b161c1916905538808061070f565b838301518955600190980197602093840193016106f6565b826000526020600020601f830160051c8101916020841061078b575b601f0160051c01905b81811061077f5750610684565b60008155600101610772565b9091508190610769565b634e487b7160e01b600052604160045260246000fd5b015190503880610645565b60008581528281209350601f198516905b81811061080357509084600195949392106107ea575b505050811b01905561065a565b015160001960f88460031b161c191690553880806107dd565b929360206001819287860151815501950193016107c7565b909150836000526020600020601f840160051c81019160208510610864575b90601f859493920160051c01905b818110610855575061062e565b60008155849350600101610848565b909150819061083a565b0151905038806105ea565b60008581528281209350601f198516905b8181106108c657509084600195949392106108ad575b505050811b0190556105ff565b015160001960f88460031b161c191690553880806108a0565b9293602060018192878601518155019501930161088a565b909150836000526020600020601f840160051c81019160208510610927575b90601f859493920160051c01905b81811061091857506105d3565b6000815584935060010161090b565b90915081906108fd565b01519050388061058e565b60008581528281209350601f198516905b8181106109895750908460019594939210610970575b505050811b0190556105a3565b015160001960f88460031b161c19169055388080610963565b9293602060018192878601518155019501930161094d565b909150836000526020600020601f840160051c810191602085106109ea575b90601f859493920160051c01905b8181106109db5750610577565b600081558493506001016109ce565b90915081906109c0565b015190503880610532565b60008581528281209350601f198516905b818110610a4c5750908460019594939210610a33575b505050811b019055610547565b015160001960f88460031b161c19169055388080610a26565b92936020600181928786015181550195019301610a10565b909150836000526020600020601f840160051c81019160208510610aad575b90601f859493920160051c01905b818110610a9e575061051b565b60008155849350600101610a91565b9091508190610a83565b0151905038806104d6565b60008581528281209350601f198516905b818110610b0f5750908460019594939210610af6575b505050811b0190556104eb565b015160001960f88460031b161c19169055388080610ae9565b92936020600181928786015181550195019301610ad3565b909150836000526020600020601f840160051c81019160208510610b70575b90601f859493920160051c01905b818110610b6157506104bf565b60008155849350600101610b54565b9091508190610b46565b01519050388061047a565b60008581528281209350601f198516905b818110610bd25750908460019594939210610bb9575b505050811b01905561048f565b015160001960f88460031b161c19169055388080610bac565b92936020600181928786015181550195019301610b96565b909150836000526020600020601f840160051c81019160208510610c33575b90601f859493920160051c01905b818110610c245750610463565b60008155849350600101610c17565b9091508190610c09565b01519050388061041f565b60008581528281209350601f198516905b818110610c955750908460019594939210610c7c575b505050811b019055610434565b015160001960f88460031b161c19169055388080610c6f565b92936020600181928786015181550195019301610c59565b909150836000526020600020601f840160051c81019160208510610cf6575b90601f859493920160051c01905b818110610ce75750610408565b60008155849350600101610cda565b9091508190610ccc565b0151905038806103c4565b60008581528281209350601f198516905b818110610d585750908460019594939210610d3f575b505050811b0190556103d9565b015160001960f88460031b161c19169055388080610d32565b92936020600181928786015181550195019301610d1c565b909150836000526020600020601f840160051c81019160208510610db9575b90601f859493920160051c01905b818110610daa57506103ad565b60008155849350600101610d9d565b9091508190610d8f565b015190503880610355565b60008581528281209350601f198516905b818110610e1b5750908460019594939210610e02575b505050811b01905561036a565b015160001960f88460031b161c19169055388080610df5565b92936020600181928786015181550195019301610ddf565b909150836000526020600020601f840160051c81019160208510610e7c575b90601f859493920160051c01905b818110610e6d575061033e565b60008155849350600101610e60565b9091508190610e52565b0151905038806102fa565b60008581528281209350601f198516905b818110610ede5750908460019594939210610ec5575b505050811b01905561030f565b015160001960f88460031b161c19169055388080610eb8565b92936020600181928786015181550195019301610ea2565b909150836000526020600020601f840160051c81019160208510610f3f575b90601f859493920160051c01905b818110610f3057506102e3565b60008155849350600101610f23565b9091508190610f15565b01519050388061029f565b60008681528281209350601f198516905b818110610fa15750908460019594939210610f88575b505050811b0182556102b4565b015160001960f88460031b161c19169055388080610f7b565b92936020600181928786015181550195019301610f65565b909150846000526020600020601f840160051c810160208510611002575b90849392915b601f830160051c82018110610ff3575050610288565b60008155859450600101610fdd565b5080610fd7565b600080fd5b34611009576020366003190112611009576004356001600160401b0381116110095761103e903690600401611225565b60405181818093516020819301916110559261127b565b81016000815203602001902061106a816112d8565b611076600183016112d8565b90611083600284016112d8565b926003810154916004820154906005830161109d906112d8565b6110a9600685016112d8565b6110b5600786016112d8565b6110c1600887016112d8565b906110ce600988016112d8565b926110db600a89016112d8565b946110e8600b8a016112d8565b966110f5600c8b016112d8565b98611102600d8c016112d8565b9a600160a01b6001900390600e0154169b6040519e8f9e8f946101e086526101e0860161112e9161137c565b858103602087015261113f9161137c565b84810360408601526111509161137c565b926060015260808d01528b810360a08d015261116b9161137c565b8a810360c08c015261117c9161137c565b89810360e08b015261118d9161137c565b8881036101008a015261119f9161137c565b8781036101208901526111b19161137c565b8681036101408801526111c39161137c565b8581036101608701526111d59161137c565b8481036101808601526111e79161137c565b8381036101a08501526111f99161137c565b906101c08301520390f35b90601f801991011681019081106001600160401b0382111761079557604052565b81601f82011215611009578035906001600160401b0382116107955760405192611259601f8401601f191660200185611204565b8284526020838301011161100957816000926020809301838601378301015290565b60005b83811061128e5750506000910152565b818101518382015260200161127e565b90600182811c921680156112ce575b60208310146112b857565b634e487b7160e01b600052602260045260246000fd5b91607f16916112ad565b90604051918260008254926112ec8461129e565b808452936001811690811561135a5750600114611313575b5061131192500383611204565b565b90506000929192526020600020906000915b81831061133e5750509060206113119282010138611304565b6020919350806001915483858901015201910190918492611325565b90506020925061131194915060ff191682840152151560051b82010138611304565b906020916113958151809281855285808601910161127b565b601f01601f191601019056fea2646970667358221220184bbfddcc0508c7b32c4ef81e207eec6bebf9a4d6852ec5b020ae6b687a59c064736f6c634300081c0033",
  "linkReferences": {},
  "deployedLinkReferences": {}
}