{
  "_format": "hh-sol-artifact-1",
  "contractName": "ProductRegistry",
  "sourceName": "contracts/ProductRegistry.sol",
  "abi": [
    {
      "anonymous": false,
      "inputs": [
        {
          "indexed": true,
          "internalType": "string",
          "name": "fingerprint",
          "type": "string"
        },
        {
          "indexed": true,
          "internalType": "string",
          "name": "serialNumber",
          "type": "string"
        },
        {
          "indexed": true,
          "internalType": "string",
          "name": "batchNumber",
          "type": "string"
        },
        {
          "indexed": false,
          "internalType": "address",
          "name": "manufacturerAddress",
          "type": "address"
        },
        {
          "indexed": false,
          "internalType": "uint256",
          "name": "registrationTimestamp",
          "type": "uint256"
        }
      ],
      "name": "ProductRegistered",
      "type": "event"
    },
    {
      "inputs": [
        {
          "internalType": "uint256",
          "name": "",
          "type": "uint256"
        }
      ],
      "name": "allProductFingerprints",
      "outputs": [
        {
          "internalType": "string",
          "name": "",
          "type": "string"
        }
      ],
      "stateMutability": "view",
      "type": "function"
    },
    {
      "inputs": [
        {
          "internalType": "string",
          "name": "serialNumber",
          "type": "string"
        }
      ],
      "name": "getFingerprintBySerial",
      "outputs": [
        {
          "internalType": "string",
          "name": "",
          "type": "string"
        }
      ],
      "stateMutability": "view",
      "type": "function"
    },
    {
      "inputs": [
        {
          "internalType": "string",
          "name": "fingerprint",
          "type": "string"
        }
      ],
      "name": "getProductByFingerprint",
      "outputs": [
        {
          "components": [
            {
              "internalType": "string",
              "name": "name",
              "type": "string"
            },
            {
              "internalType": "string",
              "name": "serialNumber",
              "type": "string"
            },
            {
              "internalType": "string",
              "name": "batchNumber",
              "type": "string"
            },
            {
              "internalType": "uint256",
              "name": "manufactureDate",
              "type": "uint256"
            },
            {
              "internalType": "uint256",
              "name": "expiryDate",
              "type": "uint256"
            },
            {
              "internalType": "string",
              "name": "manufacturerName",
              "type": "string"
            },
            {
              "internalType": "string",
              "name": "dosageForm",
              "type": "string"
            },
            {
              "internalType": "string",
              "name": "strength",
              "type": "string"
            },
            {
              "internalType": "address",
              "name": "manufacturerAddress",
              "type": "address"
            },
            {
              "internalType": "string",
              "name": "digitalFingerprint",
              "type": "string"
            },
            {
              "internalType": "uint256",
              "name": "registrationTimestamp",
              "type": "uint256"
            },
            {
              "internalType": "bool",
              "name": "isActive",
              "type": "bool"
            }
          ],
          "internalType": "struct ProductRegistry.Product",
          "name": "",
          "type": "tuple"
        }
      ],
      "stateMutability": "view",
      "type": "function"
    },
    {
      "inputs": [],
      "name": "getTotalProducts",
      "outputs": [
        {
          "internalType": "uint256",
          "name": "",
          "type": "uint256"
        }
      ],
      "stateMutability": "view",
      "type": "function"
    },
    {
      "inputs": [
        {
          "internalType": "string",
          "name": "fingerprint",
          "type": "string"
        }
      ],
      "name": "productExistsByFingerprint",
      "outputs": [
        {
          "internalType": "bool",
          "name": "",
          "type": "bool"
        }
      ],
      "stateMutability": "view",
      "type": "function"
    },
    {
      "inputs": [
        {
          "internalType": "string",
          "name": "",
          "type": "string"
        }
      ],
      "name": "products",
      "outputs": [
        {
          "internalType": "string",
          "name": "name",
          "type": "string"
        },
        {
          "internalType": "string",
          "name": "serialNumber",
          "type": "string"
        },
        {
          "internalType": "string",
          "name": "batchNumber",
          "type": "string"
        },
        {
          "internalType": "uint256",
          "name": "manufactureDate",
          "type": "uint256"
        },
        {
          "internalType": "uint256",
          "name": "expiryDate",
          "type": "uint256"
        },
        {
          "internalType": "string",
          "name": "manufacturerName",
          "type": "string"
        },
        {
          "internalType": "string",
          "name": "dosageForm",
          "type": "string"
        },
        {
          "internalType": "string",
          "name": "strength",
          "type": "string"
        },
        {
          "internalType": "address",
          "name": "manufacturerAddress",
          "type": "address"
        },
        {
          "internalType": "string",
          "name": "digitalFingerprint",
          "type": "string"
        },
        {
          "internalType": "uint256",
          "name": "registrationTimestamp",
          "type": "uint256"
        },
        {
          "internalType": "bool",
          "name": "isActive",
          "type": "bool"
        }
      ],
      "stateMutability": "view",
      "type": "function"
    },
    {
      "inputs": [
        {
          "internalType": "string",
          "name": "",
          "type": "string"
        }
      ],
      "name": "productsByFingerprint",
      "outputs": [
        {
          "internalType": "string",
          "name": "name",
          "type": "string"
        },
        {
          "internalType": "string",
          "name": "serialNumber",
          "type": "string"
        },
        {
          "internalType": "string",
          "name": "batchNumber",
          "type": "string"
        },
        {
          "internalType": "uint256",
          "name": "manufactureDate",
          "type": "uint256"
        },
        {
          "internalType": "uint256",
          "name": "expiryDate",
          "type": "uint256"
        },
        {
          "internalType": "string",
          "name": "manufacturerName",
          "type": "string"
        },
        {
          "internalType": "string",
          "name": "dosageForm",
          "type": "string"
        },
        {
          "internalType": "string",
          "name": "strength",
          "type": "string"
        },
        {
          "internalType": "address",
          "name": "manufacturerAddress",
          "type": "address"
        },
        {
          "internalType": "string",
          "name": "digitalFingerprint",
          "type": "string"
        },
        {
          "internalType": "uint256",
          "name": "registrationTimestamp",
          "type": "uint256"
        },
        {
          "internalType": "bool",
          "name": "isActive",
          "type": "bool"
        }
      ],
      "stateMutability": "view",
      "type": "function"
    },
    {
      "inputs": [
        {
          "internalType": "string",
          "name": "name",
          "type": "string"
        },
        {
          "internalType": "string",
          "name": "serialNumber",
          "type": "string"
        },
        {
          "internalType": "string",
          "name": "batchNumber",
          "type": "string"
        },
        {
          "internalType": "uint256",
          "name": "manufactureDate",
          "type": "uint256"
        },
        {
          "internalType": "uint256",
          "name": "expiryDate",
          "type": "uint256"
        },
        {
          "internalType": "string",
          "name": "manufacturerName",
          "type": "string"
        },
        {
          "internalType": "string",
          "name": "dosageForm",
          "type": "string"
        },
        {
          "internalType": "string",
          "name": "strength",
          "type": "string"
        }
      ],
      "name": "registerProduct",
      "outputs": [],
      "stateMutability": "nonpayable",
      "type": "function"
    },
    {
      "inputs": [
        {
          "internalType": "string",
          "name": "",
          "type": "string"
        }
      ],
      "name": "serialToFingerprint",
      "outputs": [
        {
          "internalType": "string",
          "name": "",
          "type": "string"
        }
      ],
      "stateMutability": "view",
      "type": "function"
    }
  ],
  "bytecode": "0x60806040523460195760405161124a61001f823961124a90f35b600080fdfe6080604052600436101561001257600080fd5b60003560e01c80630186a423146100a257806333e03df51461009d5780633f4371c514610098578063570aea8a14610093578063630f39a01461008e578063962fa6d0146100895780639af5b05114610084578063a55cf64d1461007f5763fce318f7036100a7576108bd565b6108a2565b61087c565b6107e9565b6106fa565b6106ce565b61069c565b610574565b6104e1565b600080fd5b634e487b7160e01b600052604160045260246000fd5b90601f01601f191681019081106001600160401b038211176100e357604052565b6100ac565b906100fc6100f560405190565b92836100c2565b565b6001600160401b0381116100e357602090601f01601f19160190565b0190565b90826000939282370152565b9092919261013f61013a826100fe565b6100e8565b93818552818301116100a7576100fc91602085019061011e565b9080601f830112156100a7578160206101749335910161012a565b90565b906020828203126100a75781356001600160401b0381116100a7576101749201610159565b60005b8381106101af5750506000910152565b818101518382015260200161019f565b61011a6101d7926020926101d1815190565b94859290565b9384910161019c565b9052565b6101f461011a91602094936101bf565b918252565b61020e61020560405190565b928392836101e4565b03902090565b610174916101f9565b634e487b7160e01b600052602260045260246000fd5b9060016002830492168015610253575b602083101461024e57565b61021d565b91607f1691610243565b8054600093929161027a61027083610233565b8085529360200190565b91600181169081156102cc575060011461029357505050565b6102a69192939450600052602060002090565b916000925b8184106102b85750500190565b8054848401526020909301926001016102ab565b92949550505060ff1916825215156020020190565b906101749161025d565b906100fc610305926102fc60405190565b938480926102e1565b03836100c2565b6101749081565b610174905461030c565b610174905b6001600160a01b031690565b610174905461031d565b610343906000610214565b9061034d826102eb565b9161035a600182016102eb565b91610367600283016102eb565b9161037460038201610313565b9161038160048301610313565b9161038e600582016102eb565b9161039b600683016102eb565b916103a8600782016102eb565b916103b56008830161032e565b916103c2600982016102eb565b91610174600b6103d4600a8501610313565b93015460ff1690565b6103fe61040760209361011a936103f2815190565b80835293849260200190565b9586910161019c565b601f01601f191690565b6101e090610322565b97906104d99761049a6100fc9d9f9e9c966104d09961048d6101609e9a60808f6104896104816104c29d6104736104b69e6104656104a89e61018088019088820360008a01526103dd565b9086820360208801526103dd565b9084820360408601526103dd565b966060830152565b0152565b8c820360a08e01526103dd565b908a820360c08c01526103dd565b9088820360e08a01526103dd565b92610100870190610411565b8482036101208601526103dd565b96610140830152565b019015159052565b346100a75761051e6104fc6104f7366004610177565b610338565b986105159c9a9c98919897929796939695949560405190565b9c8d9c8d61041a565b0390f35b634e487b7160e01b600052600060045260246000fd5b9060001061054957610174906102eb565b610522565b600061055e610174926002610214565b610538565b6020808252610174929101906103dd565b346100a75761051e61058f61058a366004610177565b61054e565b60405191829182610563565b9061017490610160806106706106486106366106246105f46105e26105d06101808a0160008d01518b820360008d01526103dd565b60208c01518a820360208c01526103dd565b60408b015189820360408b01526103dd565b61060360608b015160608a0152565b61061260808b015160808a0152565b60a08a015188820360a08a01526103dd565b60c089015187820360c08901526103dd565b60e088015186820360e08801526103dd565b61065c610100880151610100870190610411565b6101208701518582036101208701526103dd565b94610682610140820151610140860152565b01511515910152565b60208082526101749291019061059b565b346100a75761051e6106b76106b2366004610177565b610ad1565b6040519182918261068b565b60009103126100a757565b346100a7576106de3660046106c3565b61051e6106ea60035490565b6040519182918290815260200190565b346100a75761051e61058f610710366004610177565b610b6c565b919091610100818403126100a75780356001600160401b0381116100a7578361073f918301610159565b9260208201356001600160401b0381116100a7578161075f918401610159565b9260408301356001600160401b0381116100a7578261077f918501610159565b9260608101359260808201359260a08301356001600160401b0381116100a757826107ab918501610159565b9260c08101356001600160401b0381116100a757836107cb918301610159565b9260e08201356001600160401b0381116100a7576101749201610159565b346100a75761080b6107fc366004610715565b9695909594919493929361101c565b604051005b906020828203126100a757503590565b634e487b7160e01b600052603260045260246000fd5b805482101561085957610850600191600052602060002090565b91020190600090565b610820565b6003548110156100a757610876610174916003610836565b90610538565b346100a75761051e61058f610892366004610810565b61085e565b610343906001610214565b346100a75761051e6104fc6108b8366004610177565b610897565b346100a75761051e6108d86108d3366004610177565b611194565b60405191829182901515815260200190565b6101746101806100e8565b6108fd6108ea565b9060608252602080808080808080808080808d0160608152016060815201600081520160008152016060815201606081520160608152016000815201606081520160008152016000905250565b6101746108f5565b6101749054610233565b6101746101746101749290565b1561097057565b60405162461bcd60e51b8152602060048201526011602482015270141c9bd91d58dd081b9bdd08199bdd5b99607a1b6044820152606490fd5b906101e090610322565b906100fc610abe600b6109c46108ea565b946109d56109d1826102eb565b8752565b6109eb6109e4600183016102eb565b6020880152565b610a016109fa600283016102eb565b6040880152565b610a17610a1060038301610313565b6060880152565b610a2d610a2660048301610313565b6080880152565b610a43610a3c600583016102eb565b60a0880152565b610a59610a52600683016102eb565b60c0880152565b610a6f610a68600783016102eb565b60e0880152565b610a88610a7e6008830161032e565b61010088016109a9565b610a9f610a97600983016102eb565b610120880152565b610ab6610aae600a8301610313565b610140880152565b015460ff1690565b1515610160840152565b610174906109b3565b610b1861017491610ae061094a565b506001610b13610afc610af78361011a8682610214565b610952565b610b0d610b09600061095c565b9190565b11610969565b610214565b610ac8565b15610b2457565b60405162461bcd60e51b815260206004820152601760248201527614d95c9a585b081b9d5b58995c881b9bdd08199bdd5b99604a1b6044820152606490fd5b610174906102eb565b610baa61017491610b7b606090565b50610ba3610b90610af7610174846002610214565b610b9d610b09600061095c565b11610b1d565b6002610214565b610b63565b15610bb657565b60405162461bcd60e51b815260206004820152602260248201527f50726f647563742066696e6765727072696e7420616c72656164792065786973604482015261747360f01b6064820152608490fd5b15610c0d57565b60405162461bcd60e51b815260206004820152601c60248201527b53657269616c206e756d62657220616c72656164792065786973747360201b6044820152606490fd5b9160001960089290920291821b911b5b9181191691161790565b9190610c7c610174610c849361095c565b908354610c51565b9055565b6100fc91600091610c6b565b818110610c9f575050565b80610cad6000600193610c88565b01610c94565b9190601f8111610cc257505050565b610cd46100fc93600052602060002090565b906020601f840181900483019310610cf6575b6020601f909101040190610c94565b9091508190610ce7565b9060001960089091021c191690565b81610d1991610d00565b906002021790565b90610d2a815190565b906001600160401b0382116100e357610d4d82610d478554610233565b85610cb3565b602090601f8311600114610d7b57610c84929160009183610d70575b5050610d0f565b015190503880610d69565b601f19831691610d9085600052602060002090565b9260005b818110610dcf57509160029391856001969410610db5575b50505002019055565b610dc5910151601f841690610d00565b9055388080610dac565b91936020600181928787015181550195019201610d94565b906100fc91610d21565b9060001990610c61565b90610e0b610174610c849261095c565b8254610df1565b6101749051610322565b906001600160a01b0390610c61565b61017490610322906001600160a01b031682565b61017490610e2b565b61017490610e3f565b90610e61610174610c8492610e48565b8254610e1c565b9060ff90610c61565b90610e81610174610c8492151590565b8254610e68565b600b610f996101606100fc94610ea8610ea2600083015190565b86610de7565b610ebf610eb6602083015190565b60018701610de7565b610ed6610ecd604083015190565b60028701610de7565b610eed610ee4606083015190565b60038701610dfb565b610f04610efb608083015190565b60048701610dfb565b610f1b610f1260a083015190565b60058701610de7565b610f32610f2960c083015190565b60068701610de7565b610f49610f4060e083015190565b60078701610de7565b610f62610f596101008301610e12565b60088701610e51565b610f7a610f7161012083015190565b60098701610de7565b610f92610f8961014083015190565b600a8701610dfb565b0151151590565b9101610e71565b906100fc91610e88565b9190610549576100fc91610d21565b80549190600160401b8310156100e35782610fdc9160016100fc95018155610836565b90610faa565b610174916101bf565b61020e90610ff860405190565b91829182610fe2565b9160206100fc92949361048960408201966000830190610411565b90969195919492936110314285848a8c6111e2565b958693600195866110428782610214565b0161104c90610952565b936000946110598661095c565b1461106390610baf565b8761106e8d87610214565b0161107890610952565b6110818661095c565b1461108b90610c06565b6110936108ea565b988996868801906110a19152565b602087018d9052604087018c90526060870152608086015260a085015260c084015260e08301526110d63361010084016109a9565b61012082018390526110ea42610140840152565b831515610160830152876110fd91610214565b9061110791610fa0565b61111091610214565b9061111a91610fa0565b80611126846002610214565b9061113091610de7565b61113b816003610fb9565b61114490610feb565b9161114e90610feb565b9061115890610feb565b9161116260405190565b8061116e423383611001565b037f94f13dbe024332dcc9eea3655dffd40eaeb320b6c8479d9bc98d2c34f1e5e1c591a4565b610af7600161011a6111af936111a8600090565b5082610214565b6111bc610b09600061095c565b1190565b61011a936111dc6101f4946111dc6111dc9460209a99966101bf565b906101bf565b6112086101749561017494956111f6606090565b506040519687956020870195866111c0565b908103825203826100c256fea2646970667358221220a75bcb83db6bf9fa89fb455dd41d691a9770515b358262b7da54f796f96585eb64736f6c634300081c0033",
  "linkReferences": {},
  "deployedLinkReferences": {}
}