{
  "_format": "hh-sol-artifact-1",
  "contractName": "UserRegistry",
  "sourceName": "contracts/UserRegistry.sol",
  "abi": [
    {
      "inputs": [],
      "stateMutability": "nonpayable",
      "type": "constructor"
    },
    {
      "anonymous": false,
      "inputs": [
        {
          "indexed": true,
          "internalType": "address",
          "name": "oldAdmin",
          "type": "address"
        },
        {
          "indexed": true,
          "internalType": "address",
          "name": "newAdmin",
          "type": "address"
        }
      ],
      "name": "AdminChanged",
      "type": "event"
    },
    {
      "anonymous": false,
      "inputs": [
        {
          "indexed": true,
          "internalType": "address",
          "name": "user",
          "type": "address"
        },
        {
          "indexed": false,
          "internalType": "bool",
          "name": "isApproved",
          "type": "bool"
        },
        {
          "indexed": false,
          "internalType": "enum UserRegistry.Role",
          "name": "role",
          "type": "uint8"
        }
      ],
      "name": "UserWhitelisted",
      "type": "event"
    },
    {
      "inputs": [],
      "name": "admin",
      "outputs": [
        {
          "internalType": "address",
          "name": "",
          "type": "address"
        }
      ],
      "stateMutability": "view",
      "type": "function"
    },
    {
      "inputs": [
        {
          "internalType": "address",
          "name": "user",
          "type": "address"
        }
      ],
      "name": "getUserRole",
      "outputs": [
        {
          "internalType": "enum UserRegistry.Role",
          "name": "",
          "type": "uint8"
        }
      ],
      "stateMutability": "view",
      "type": "function"
    },
    {
      "inputs": [
        {
          "internalType": "address",
          "name": "user",
          "type": "address"
        }
      ],
      "name": "isUserApproved",
      "outputs": [
        {
          "internalType": "bool",
          "name": "",
          "type": "bool"
        }
      ],
      "stateMutability": "view",
      "type": "function"
    },
    {
      "inputs": [
        {
          "internalType": "address",
          "name": "user",
          "type": "address"
        },
        {
          "internalType": "bool",
          "name": "approved",
          "type": "bool"
        },
        {
          "internalType": "enum UserRegistry.Role",
          "name": "role",
          "type": "uint8"
        }
      ],
      "name": "setUser",
      "outputs": [],
      "stateMutability": "nonpayable",
      "type": "function"
    },
    {
      "inputs": [
        {
          "internalType": "address",
          "name": "",
          "type": "address"
        }
      ],
      "name": "users",
      "outputs": [
        {
          "internalType": "bool",
          "name": "isApproved",
          "type": "bool"
        },
        {
          "internalType": "enum UserRegistry.Role",
          "name": "role",
          "type": "uint8"
        }
      ],
      "stateMutability": "view",
      "type": "function"
    }
  ],
  "bytecode": "0x608060405234601f57600e607f565b6040516104c361008b82396104c390f35b600080fd5b6036906039906001600160a01b031682565b90565b6001600160a01b031690565b6036906024565b6036906045565b90605f6036607b92604c565b82546001600160a01b0319166001600160a01b03919091161790565b9055565b60883360006053565b56fe6080604052600436101561001257600080fd5b60003560e01c80632782085114610062578063529d6ccf1461005d57806370ec87a414610058578063a87430ba146100535763f851a44003610067576102ec565b610277565b6101b7565b61012e565b610103565b600080fd5b6001600160a01b031690565b90565b6100848161006c565b0361006757565b905035906100988261007b565b565b90602082820312610067576100789161008b565b634e487b7160e01b600052602160045260246000fd5b600611156100ce57565b6100ae565b90610098826100c4565b610078906100d3565b6100ef906100dd565b9052565b60208101929161009891906100e6565b346100675761012a61011e61011936600461009a565b610313565b604051918291826100f3565b0390f35b346100675761012a61014961014436600461009a565b610332565b60405191829182901515815260200190565b801515610084565b905035906100988261015b565b6006111561006757565b9050359061009882610170565b9091606082840312610067576100786101a0848461008b565b9360406101b08260208701610163565b940161017a565b34610067576101d06101ca366004610187565b91610482565b604051005b6100789061006c906001600160a01b031682565b610078906101d5565b610078906101e9565b90610205906101f2565b600052602052604060002090565b610078905b60ff1690565b6100789054610213565b6100789060081c610218565b6100789054610228565b6102499060016101fb565b9061007860006102588461021e565b9301610234565b901515815260408101929161009891602001906100e6565b346100675761028f61028a36600461009a565b61023e565b9061012a61029c60405190565b9283928361025f565b600091031261006757565b610078916008021c61006c565b9061007891546102b0565b6100786000806102bd565b6100ef9061006c565b60208101929161009891906102d3565b34610067576102fc3660046102a5565b61012a6103076102c8565b604051918291826102dc565b600061032c61007892610324600090565b5060016101fb565b01610234565b600061034361007892610324600090565b0161021e565b6100789061006c565b6100789054610349565b1561036357565b60405162461bcd60e51b815260206004820152600e60248201526d139bdd08185d5d1a1bdc9a5e995960921b6044820152606490fd5b9061009892916103c36103b46103af6000610352565b61006c565b6103bd3361006c565b1461035c565b610416565b9060ff905b9181191691161790565b906103e76100786103ee92151590565b82546103c8565b9055565b9061ff009060081b6103cd565b9061040f6100786103ee926100dd565b82546103f2565b916104707f36785511cdd0ecc0b728f504d278869443ae902b8c1cc7f63c6933f16d47dcf5929361045485600061044e8460016101fb565b016103d7565b61046b8360006104658460016101fb565b016103ff565b6101f2565b9261047d61029c60405190565b0390a2565b90610098929161039956fea264697066735822122015abc2c87f694584bb6a71f7cc44dc35f80e8d3f4943e861f2e630ef999c2d7664736f6c634300081c0033",
  "linkReferences": {},
  "deployedLinkReferences": {}
}